{
  "_format": "hh-sol-artifact-1",
  "contractName": "IncrementalBinaryTree",
  "sourceName": "@zk-kit/incremental-merkle-tree.sol/IncrementalBinaryTree.sol",
  "abi": [
    {
      "inputs": [],
      "name": "Z_0",
      "outputs": [
        {
          "internalType": "uint256",
          "name": "",
          "type": "uint256"
        }
      ],
      "stateMutability": "view",
      "type": "function"
    },
    {
      "inputs": [],
      "name": "Z_1",
      "outputs": [
        {
          "internalType": "uint256",
          "name": "",
          "type": "uint256"
        }
      ],
      "stateMutability": "view",
      "type": "function"
    },
    {
      "inputs": [],
      "name": "Z_10",
      "outputs": [
        {
          "internalType": "uint256",
          "name": "",
          "type": "uint256"
        }
      ],
      "stateMutability": "view",
      "type": "function"
    },
    {
      "inputs": [],
      "name": "Z_11",
      "outputs": [
        {
          "internalType": "uint256",
          "name": "",
          "type": "uint256"
        }
      ],
      "stateMutability": "view",
      "type": "function"
    },
    {
      "inputs": [],
      "name": "Z_12",
      "outputs": [
        {
          "internalType": "uint256",
          "name": "",
          "type": "uint256"
        }
      ],
      "stateMutability": "view",
      "type": "function"
    },
    {
      "inputs": [],
      "name": "Z_13",
      "outputs": [
        {
          "internalType": "uint256",
          "name": "",
          "type": "uint256"
        }
      ],
      "stateMutability": "view",
      "type": "function"
    },
    {
      "inputs": [],
      "name": "Z_14",
      "outputs": [
        {
          "internalType": "uint256",
          "name": "",
          "type": "uint256"
        }
      ],
      "stateMutability": "view",
      "type": "function"
    },
    {
      "inputs": [],
      "name": "Z_15",
      "outputs": [
        {
          "internalType": "uint256",
          "name": "",
          "type": "uint256"
        }
      ],
      "stateMutability": "view",
      "type": "function"
    },
    {
      "inputs": [],
      "name": "Z_16",
      "outputs": [
        {
          "internalType": "uint256",
          "name": "",
          "type": "uint256"
        }
      ],
      "stateMutability": "view",
      "type": "function"
    },
    {
      "inputs": [],
      "name": "Z_17",
      "outputs": [
        {
          "internalType": "uint256",
          "name": "",
          "type": "uint256"
        }
      ],
      "stateMutability": "view",
      "type": "function"
    },
    {
      "inputs": [],
      "name": "Z_18",
      "outputs": [
        {
          "internalType": "uint256",
          "name": "",
          "type": "uint256"
        }
      ],
      "stateMutability": "view",
      "type": "function"
    },
    {
      "inputs": [],
      "name": "Z_19",
      "outputs": [
        {
          "internalType": "uint256",
          "name": "",
          "type": "uint256"
        }
      ],
      "stateMutability": "view",
      "type": "function"
    },
    {
      "inputs": [],
      "name": "Z_2",
      "outputs": [
        {
          "internalType": "uint256",
          "name": "",
          "type": "uint256"
        }
      ],
      "stateMutability": "view",
      "type": "function"
    },
    {
      "inputs": [],
      "name": "Z_20",
      "outputs": [
        {
          "internalType": "uint256",
          "name": "",
          "type": "uint256"
        }
      ],
      "stateMutability": "view",
      "type": "function"
    },
    {
      "inputs": [],
      "name": "Z_21",
      "outputs": [
        {
          "internalType": "uint256",
          "name": "",
          "type": "uint256"
        }
      ],
      "stateMutability": "view",
      "type": "function"
    },
    {
      "inputs": [],
      "name": "Z_22",
      "outputs": [
        {
          "internalType": "uint256",
          "name": "",
          "type": "uint256"
        }
      ],
      "stateMutability": "view",
      "type": "function"
    },
    {
      "inputs": [],
      "name": "Z_23",
      "outputs": [
        {
          "internalType": "uint256",
          "name": "",
          "type": "uint256"
        }
      ],
      "stateMutability": "view",
      "type": "function"
    },
    {
      "inputs": [],
      "name": "Z_24",
      "outputs": [
        {
          "internalType": "uint256",
          "name": "",
          "type": "uint256"
        }
      ],
      "stateMutability": "view",
      "type": "function"
    },
    {
      "inputs": [],
      "name": "Z_25",
      "outputs": [
        {
          "internalType": "uint256",
          "name": "",
          "type": "uint256"
        }
      ],
      "stateMutability": "view",
      "type": "function"
    },
    {
      "inputs": [],
      "name": "Z_26",
      "outputs": [
        {
          "internalType": "uint256",
          "name": "",
          "type": "uint256"
        }
      ],
      "stateMutability": "view",
      "type": "function"
    },
    {
      "inputs": [],
      "name": "Z_27",
      "outputs": [
        {
          "internalType": "uint256",
          "name": "",
          "type": "uint256"
        }
      ],
      "stateMutability": "view",
      "type": "function"
    },
    {
      "inputs": [],
      "name": "Z_28",
      "outputs": [
        {
          "internalType": "uint256",
          "name": "",
          "type": "uint256"
        }
      ],
      "stateMutability": "view",
      "type": "function"
    },
    {
      "inputs": [],
      "name": "Z_29",
      "outputs": [
        {
          "internalType": "uint256",
          "name": "",
          "type": "uint256"
        }
      ],
      "stateMutability": "view",
      "type": "function"
    },
    {
      "inputs": [],
      "name": "Z_3",
      "outputs": [
        {
          "internalType": "uint256",
          "name": "",
          "type": "uint256"
        }
      ],
      "stateMutability": "view",
      "type": "function"
    },
    {
      "inputs": [],
      "name": "Z_30",
      "outputs": [
        {
          "internalType": "uint256",
          "name": "",
          "type": "uint256"
        }
      ],
      "stateMutability": "view",
      "type": "function"
    },
    {
      "inputs": [],
      "name": "Z_31",
      "outputs": [
        {
          "internalType": "uint256",
          "name": "",
          "type": "uint256"
        }
      ],
      "stateMutability": "view",
      "type": "function"
    },
    {
      "inputs": [],
      "name": "Z_32",
      "outputs": [
        {
          "internalType": "uint256",
          "name": "",
          "type": "uint256"
        }
      ],
      "stateMutability": "view",
      "type": "function"
    },
    {
      "inputs": [],
      "name": "Z_4",
      "outputs": [
        {
          "internalType": "uint256",
          "name": "",
          "type": "uint256"
        }
      ],
      "stateMutability": "view",
      "type": "function"
    },
    {
      "inputs": [],
      "name": "Z_5",
      "outputs": [
        {
          "internalType": "uint256",
          "name": "",
          "type": "uint256"
        }
      ],
      "stateMutability": "view",
      "type": "function"
    },
    {
      "inputs": [],
      "name": "Z_6",
      "outputs": [
        {
          "internalType": "uint256",
          "name": "",
          "type": "uint256"
        }
      ],
      "stateMutability": "view",
      "type": "function"
    },
    {
      "inputs": [],
      "name": "Z_7",
      "outputs": [
        {
          "internalType": "uint256",
          "name": "",
          "type": "uint256"
        }
      ],
      "stateMutability": "view",
      "type": "function"
    },
    {
      "inputs": [],
      "name": "Z_8",
      "outputs": [
        {
          "internalType": "uint256",
          "name": "",
          "type": "uint256"
        }
      ],
      "stateMutability": "view",
      "type": "function"
    },
    {
      "inputs": [],
      "name": "Z_9",
      "outputs": [
        {
          "internalType": "uint256",
          "name": "",
          "type": "uint256"
        }
      ],
      "stateMutability": "view",
      "type": "function"
    },
    {
      "inputs": [
        {
          "internalType": "uint256",
          "name": "index",
          "type": "uint256"
        }
      ],
      "name": "defaultZero",
      "outputs": [
        {
          "internalType": "uint256",
          "name": "",
          "type": "uint256"
        }
      ],
      "stateMutability": "pure",
      "type": "function"
    }
  ],
  "bytecode": "0x612e67610053600b82828239805160001a607314610046577f4e487b7100000000000000000000000000000000000000000000000000000000600052600060045260246000fd5b30600052607381538281f3fe73000000000000000000000000000000000000000030146080604052600436106102475760003560e01c806365ad985e11610145578063b1849a1a116100c2578063c7fadc6711610086578063c7fadc67146106a5578063ccbad174146106c3578063d2aa5c62146106e1578063eb095a7d146106ff578063f49babe61461071d57610247565b8063b1849a1a1461060f578063b410396a1461062d578063b5f35eb91461064b578063c0c5bf6714610669578063c6675bbf1461068757610247565b80639bf21071116101095780639bf210711461056e5780639cda47741461058c578063a3205067146105aa578063a5478827146105c8578063af9d047c146105f157610247565b806365ad985e146104d857806365f7bec3146104f65780638836ccf61461051457806389d0e93214610532578063948042151461055057610247565b80633994a957116101d3578063565b427e11610197578063565b427e14610442578063583f8af4146104605780635da707d41461047e5780635fcde0671461049c57806364048bf2146104ba57610247565b80633994a957146103ac57806344f9e1ac146103ca57806352be1fb8146103e857806354f5a9011461040657806355005f761461042457610247565b8063168703fa1161021a578063168703fa146102e557806318f18fb1146103225780631ddbea001461035257806330314fc014610370578063309ec3c31461038e57610247565b80630629596f1461024c5780631095fbb414610275578063115055441461029e57806312b3a2fb146102bc575b600080fd5b81801561025857600080fd5b50610273600480360381019061026e91906120e8565b61073b565b005b81801561028157600080fd5b5061029c6004803603810190610297919061218f565b610785565b005b6102a6610925565b6040516102b391906121f1565b60405180910390f35b8180156102c857600080fd5b506102e360048036038101906102de919061220c565b610949565b005b8180156102f157600080fd5b5061030c6004803603810190610307919061220c565b6109d7565b60405161031991906121f1565b60405180910390f35b61033c6004803603810190610337919061224c565b610c5a565b60405161034991906121f1565b60405180910390f35b61035a6112cd565b60405161036791906121f1565b60405180910390f35b6103786112f1565b60405161038591906121f1565b60405180910390f35b610396611315565b6040516103a391906121f1565b60405180910390f35b6103b4611339565b6040516103c191906121f1565b60405180910390f35b6103d261135d565b6040516103df91906121f1565b60405180910390f35b6103f0611381565b6040516103fd91906121f1565b60405180910390f35b61040e6113a5565b60405161041b91906121f1565b60405180910390f35b61042c6113c9565b60405161043991906121f1565b60405180910390f35b61044a6113ed565b60405161045791906121f1565b60405180910390f35b610468611411565b60405161047591906121f1565b60405180910390f35b610486611435565b60405161049391906121f1565b60405180910390f35b6104a4611459565b6040516104b191906121f1565b60405180910390f35b6104c261147d565b6040516104cf91906121f1565b60405180910390f35b6104e06114a1565b6040516104ed91906121f1565b60405180910390f35b6104fe6114a6565b60405161050b91906121f1565b60405180910390f35b61051c6114ca565b60405161052991906121f1565b60405180910390f35b61053a6114ee565b60405161054791906121f1565b60405180910390f35b610558611512565b60405161056591906121f1565b60405180910390f35b610576611536565b60405161058391906121f1565b60405180910390f35b61059461155a565b6040516105a191906121f1565b60405180910390f35b6105b261157e565b6040516105bf91906121f1565b60405180910390f35b8180156105d457600080fd5b506105ef60048036038101906105ea9190612279565b6115a2565b005b6105f9611a06565b60405161060691906121f1565b60405180910390f35b610617611a2a565b60405161062491906121f1565b60405180910390f35b610635611a4e565b60405161064291906121f1565b60405180910390f35b610653611a72565b60405161066091906121f1565b60405180910390f35b610671611a96565b60405161067e91906121f1565b60405180910390f35b61068f611aba565b60405161069c91906121f1565b60405180910390f35b6106ad611ade565b6040516106ba91906121f1565b60405180910390f35b6106cb611b02565b6040516106d891906121f1565b60405180910390f35b6106e9611b26565b6040516106f691906121f1565b60405180910390f35b610707611b4a565b60405161071491906121f1565b60405180910390f35b610725611b6e565b60405161073291906121f1565b60405180910390f35b61077d86868860050160009054906101000a900460ff166107715788600301600080815260200190815260200160002054610774565b60005b878787876115a2565b505050505050565b7f30644e72e131a029b85045b68181585d2833e84879b9709143e1f593f000000181106107e7576040517f08c379a00000000000000000000000000000000000000000000000000000000081526004016107de906123b8565b60405180910390fd5b6000821180156107fb5750602060ff168211155b61083a576040517f08c379a00000000000000000000000000000000000000000000000000000000081526004016108319061244a565b60405180910390fd5b81836000018190555060005b828160ff16101561091657818460030160008360ff1681526020019081526020016000208190555073__$75f79a42d9bcbdbb69ad79ebd80f556f39$__63561558fe6040518060400160405280858152602001858152506040518263ffffffff1660e01b81526004016108b99190612515565b60206040518083038186803b1580156108d157600080fd5b505af41580156108e5573d6000803e3d6000fd5b505050506040513d601f19601f820116820180604052508101906109099190612545565b9150806001019050610846565b50808360010181905550505050565b7f120c58f143d491e95902f7f5277778a2e0ad5168f6add75669932630ce61151881565b60008111801561095d5750602060ff168111155b61099c576040517f08c379a00000000000000000000000000000000000000000000000000000000081526004016109939061244a565b60405180910390fd5b80826000018190555060018260050160006101000a81548160ff0219169083151502179055506109cb81610c5a565b82600101819055505050565b600080836000015490507f30644e72e131a029b85045b68181585d2833e84879b9709143e1f593f00000018310610a43576040517f08c379a0000000000000000000000000000000000000000000000000000000008152600401610a3a906123b8565b60405180910390fd5b806002610a5091906126d4565b846002015410610a95576040517f08c379a0000000000000000000000000000000000000000000000000000000008152600401610a8c90612791565b60405180910390fd5b600084600201549050600084905060008660050160009054906101000a900460ff16905060005b848160ff161015610c27576000600185161415610b4357604051806040016040528084815260200183610b07578960030160008460ff16815260200190815260200160002054610b14565b610b138360ff16610c5a565b5b8152508860040160008360ff168152602001908152602001600020906002610b3d929190611f5a565b50610b75565b828860040160008360ff168152602001908152602001600020600160028110610b6f57610b6e6127b1565b5b01819055505b73__$75f79a42d9bcbdbb69ad79ebd80f556f39$__63561558fe8960040160008460ff1681526020019081526020016000206040518263ffffffff1660e01b8152600401610bc391906128a4565b60206040518083038186803b158015610bdb57600080fd5b505af4158015610bef573d6000803e3d6000fd5b505050506040513d601f19601f82011682018060405250810190610c139190612545565b9250600184901c9350806001019050610abc565b508187600101819055506001876002016000828254610c4691906128bf565b925050819055508194505050505092915050565b600080821415610c6d57600090506112c8565b6001821415610c9e577f2098f5fb9e239eab3ceac3f27b81e481dc3124d55ffed523a839ee8446b6486490506112c8565b6002821415610ccf577f1069673dcdb12263df301a6ff584a7ec261a44cb9dc68df067a4774460b1f1e190506112c8565b6003821415610d00577f18f43331537ee2af2e3d758d50f72106467c6eea50371dd528d57eb2b856d23890506112c8565b6004821415610d31577f07f9d837cb17b0d36320ffe93ba52345f1b728571a568265caac97559dbc952a90506112c8565b6005821415610d62577f2b94cf5e8746b3f5c9631f4c5df32907a699c58c94b2ad4d7b5cec1639183f5590506112c8565b6006821415610d93577f2dee93c5a666459646ea7d22cca9e1bcfed71e6951b953611d11dda32ea09d7890506112c8565b6007821415610dc4577f078295e5a22b84e982cf601eb639597b8b0515a88cb5ac7fa8a4aabe3c87349d90506112c8565b6008821415610df5577f2fa5e5f18f6027a6501bec864564472a616b2e274a41211a444cbe3a99f3cc6190506112c8565b6009821415610e26577f0e884376d0d8fd21ecb780389e941f66e45e7acce3e228ab3e2156a614fcd74790506112c8565b600a821415610e57577f1b7201da72494f1e28717ad1a52eb469f95892f957713533de6175e5da190af290506112c8565b600b821415610e88577f1f8d8822725e36385200c0b201249819a6e6e1e4650808b5bebc6bface7d763690506112c8565b600c821415610eb9577f2c5d82f66c914bafb9701589ba8cfcfb6162b0a12acf88a8d0879a0471b5f85a90506112c8565b600d821415610eea577f14c54148a0940bb820957f5adf3fa1134ef5c4aaa113f4646458f270e0bfbfd090506112c8565b600e821415610f1b577f190d33b12f986f961e10c0ee44d8b9af11be25588cad89d416118e4bf4ebe80c90506112c8565b600f821415610f4c577f22f98aa9ce704152ac17354914ad73ed1167ae6596af510aa5b3649325e06c9290506112c8565b6010821415610f7d577f2a7c7c9b6ce5880b9f6f228d72bf6a575a526f29c66ecceef8b753d38bba732390506112c8565b6011821415610fae577f2e8186e558698ec1c67af9c14d463ffc470043c9c2988b954d75dd643f36b99290506112c8565b6012821415610fdf577f0f57c5571e9a4eab49e2c8cf050dae948aef6ead647392273546249d1c1ff10f90506112c8565b6013821415611010577f1830ee67b5fb554ad5f63d4388800e1cfe78e310697d46e43c9ce36134f72cca90506112c8565b6014821415611041577f2134e76ac5d21aab186c2be1dd8f84ee880a1e46eaf712f9d371b6df22191f3e90506112c8565b6015821415611072577f19df90ec844ebc4ffeebd866f33859b0c051d8c958ee3aa88f8f8df3db91a5b190506112c8565b60168214156110a3577f18cca2a66b5c0787981e69aefd84852d74af0e93ef4912b4648c05f722efe52b90506112c8565b60178214156110d4577f2388909415230d1b4d1304d2d54f473a628338f2efad83fadf05644549d2538d90506112c8565b6018821415611105577f27171fb4a97b6cc0e9e8f543b5294de866a2af2c9c8d0b1d96e673e4529ed54090506112c8565b6019821415611136577f2ff6650540f629fd5711a0bc74fc0d28dcb230b9392583e5f8d59696dde6ae2190506112c8565b601a821415611167577f120c58f143d491e95902f7f5277778a2e0ad5168f6add75669932630ce61151890506112c8565b601b821415611198577f1f21feb70d3f21b07bf853d5e5db03071ec495a0a565a21da2d665d27948379590506112c8565b601c8214156111c9577f24be905fa71335e14c638cc0f66a8623a826e768068a9e968bb1a1dde18a72d290506112c8565b601d8214156111fa577f0f8666b62ed17491c50ceadead57d4cd597ef3821d65c328744c74e553dac26d90506112c8565b601e82141561122b577f0918d46bf52d98b034413f4a1a1c41594e7a7a3f6ae08cb43d1a2a230e1959ef90506112c8565b601f82141561125c577f1bbeb01b4c479ecde76917645e404dfa2e26f90d0afc5a65128513ad375c5ff290506112c8565b602082141561128d577f2f68a1c58e257e42a17a6c61dff5551ed560b9922ab119d5ac8e184c9734ead990506112c8565b6040517f08c379a00000000000000000000000000000000000000000000000000000000081526004016112bf90612987565b60405180910390fd5b919050565b7f2388909415230d1b4d1304d2d54f473a628338f2efad83fadf05644549d2538d81565b7f18cca2a66b5c0787981e69aefd84852d74af0e93ef4912b4648c05f722efe52b81565b7f2e8186e558698ec1c67af9c14d463ffc470043c9c2988b954d75dd643f36b99281565b7f2ff6650540f629fd5711a0bc74fc0d28dcb230b9392583e5f8d59696dde6ae2181565b7f24be905fa71335e14c638cc0f66a8623a826e768068a9e968bb1a1dde18a72d281565b7f1069673dcdb12263df301a6ff584a7ec261a44cb9dc68df067a4774460b1f1e181565b7f14c54148a0940bb820957f5adf3fa1134ef5c4aaa113f4646458f270e0bfbfd081565b7f0f57c5571e9a4eab49e2c8cf050dae948aef6ead647392273546249d1c1ff10f81565b7f2dee93c5a666459646ea7d22cca9e1bcfed71e6951b953611d11dda32ea09d7881565b7f2fa5e5f18f6027a6501bec864564472a616b2e274a41211a444cbe3a99f3cc6181565b7f27171fb4a97b6cc0e9e8f543b5294de866a2af2c9c8d0b1d96e673e4529ed54081565b7f078295e5a22b84e982cf601eb639597b8b0515a88cb5ac7fa8a4aabe3c87349d81565b7f1830ee67b5fb554ad5f63d4388800e1cfe78e310697d46e43c9ce36134f72cca81565b600081565b7f190d33b12f986f961e10c0ee44d8b9af11be25588cad89d416118e4bf4ebe80c81565b7f18f43331537ee2af2e3d758d50f72106467c6eea50371dd528d57eb2b856d23881565b7f2a7c7c9b6ce5880b9f6f228d72bf6a575a526f29c66ecceef8b753d38bba732381565b7f0e884376d0d8fd21ecb780389e941f66e45e7acce3e228ab3e2156a614fcd74781565b7f2c5d82f66c914bafb9701589ba8cfcfb6162b0a12acf88a8d0879a0471b5f85a81565b7f0f8666b62ed17491c50ceadead57d4cd597ef3821d65c328744c74e553dac26d81565b7f22f98aa9ce704152ac17354914ad73ed1167ae6596af510aa5b3649325e06c9281565b858514156115e5576040517f08c379a00000000000000000000000000000000000000000000000000000000081526004016115dc90612a3f565b60405180910390fd5b7f30644e72e131a029b85045b68181585d2833e84879b9709143e1f593f00000018510611647576040517f08c379a000000000000000000000000000000000000000000000000000000000815260040161163e90612ad1565b60405180910390fd5b611655878786868686611b92565b611694576040517f08c379a000000000000000000000000000000000000000000000000000000000815260040161168b90612b63565b60405180910390fd5b6000876000015490506000869050600080600090505b838160ff1610156119aa578060ff1686868360ff168181106116cf576116ce6127b1565b5b90506020020160208101906116e49190612bbc565b60ff16901b82179150600086868360ff16818110611705576117046127b1565b5b905060200201602081019061171a9190612bbc565b60ff161415611863578a60040160008260ff16815260200190815260200160002060016002811061174e5761174d6127b1565b5b015488888360ff16818110611766576117656127b1565b5b9050602002013514156117a557828b60040160008360ff16815260200190815260200160002060006002811061179f5761179e6127b1565b5b01819055505b73__$75f79a42d9bcbdbb69ad79ebd80f556f39$__63561558fe60405180604001604052808681526020018b8b8660ff168181106117e6576117e56127b1565b5b905060200201358152506040518263ffffffff1660e01b815260040161180c9190612515565b60206040518083038186803b15801561182457600080fd5b505af4158015611838573d6000803e3d6000fd5b505050506040513d601f19601f8201168201806040525081019061185c9190612545565b925061199f565b8a60040160008260ff16815260200190815260200160002060006002811061188e5761188d6127b1565b5b015488888360ff168181106118a6576118a56127b1565b5b9050602002013514156118e557828b60040160008360ff1681526020019081526020016000206001600281106118df576118de6127b1565b5b01819055505b73__$75f79a42d9bcbdbb69ad79ebd80f556f39$__63561558fe60405180604001604052808b8b8660ff168181106119205761191f6127b1565b5b905060200201358152602001868152506040518263ffffffff1660e01b815260040161194c9190612515565b60206040518083038186803b15801561196457600080fd5b505af4158015611978573d6000803e3d6000fd5b505050506040513d601f19601f8201168201806040525081019061199c9190612545565b92505b8060010190506116aa565b50896002015481106119f1576040517f08c379a00000000000000000000000000000000000000000000000000000000081526004016119e890612c5b565b60405180910390fd5b818a6001018190555050505050505050505050565b7f0918d46bf52d98b034413f4a1a1c41594e7a7a3f6ae08cb43d1a2a230e1959ef81565b7f19df90ec844ebc4ffeebd866f33859b0c051d8c958ee3aa88f8f8df3db91a5b181565b7f1f21feb70d3f21b07bf853d5e5db03071ec495a0a565a21da2d665d27948379581565b7f2134e76ac5d21aab186c2be1dd8f84ee880a1e46eaf712f9d371b6df22191f3e81565b7f2b94cf5e8746b3f5c9631f4c5df32907a699c58c94b2ad4d7b5cec1639183f5581565b7f07f9d837cb17b0d36320ffe93ba52345f1b728571a568265caac97559dbc952a81565b7f1bbeb01b4c479ecde76917645e404dfa2e26f90d0afc5a65128513ad375c5ff281565b7f2098f5fb9e239eab3ceac3f27b81e481dc3124d55ffed523a839ee8446b6486481565b7f1f8d8822725e36385200c0b201249819a6e6e1e4650808b5bebc6bface7d763681565b7f1b7201da72494f1e28717ad1a52eb469f95892f957713533de6175e5da190af281565b7f2f68a1c58e257e42a17a6c61dff5551ed560b9922ab119d5ac8e184c9734ead981565b60007f30644e72e131a029b85045b68181585d2833e84879b9709143e1f593f00000018610611bf6576040517f08c379a0000000000000000000000000000000000000000000000000000000008152600401611bed906123b8565b60405180910390fd5b6000876000015490508084849050148015611c1357508086869050145b611c52576040517f08c379a0000000000000000000000000000000000000000000000000000000008152600401611c4990612ced565b60405180910390fd5b600087905060005b828160ff161015611f44577f30644e72e131a029b85045b68181585d2833e84879b9709143e1f593f000000188888360ff16818110611c9c57611c9b6127b1565b5b9050602002013510611ce3576040517f08c379a0000000000000000000000000000000000000000000000000000000008152600401611cda90612d7f565b60405180910390fd5b600186868360ff16818110611cfb57611cfa6127b1565b5b9050602002016020810190611d109190612bbc565b60ff161480611d4c5750600086868360ff16818110611d3257611d316127b1565b5b9050602002016020810190611d479190612bbc565b60ff16145b611d8b576040517f08c379a0000000000000000000000000000000000000000000000000000000008152600401611d8290612e11565b60405180910390fd5b600086868360ff16818110611da357611da26127b1565b5b9050602002016020810190611db89190612bbc565b60ff161415611e7f5773__$75f79a42d9bcbdbb69ad79ebd80f556f39$__63561558fe60405180604001604052808581526020018b8b8660ff16818110611e0257611e016127b1565b5b905060200201358152506040518263ffffffff1660e01b8152600401611e289190612515565b60206040518083038186803b158015611e4057600080fd5b505af4158015611e54573d6000803e3d6000fd5b505050506040513d601f19601f82011682018060405250810190611e789190612545565b9150611f39565b73__$75f79a42d9bcbdbb69ad79ebd80f556f39$__63561558fe60405180604001604052808b8b8660ff16818110611eba57611eb96127b1565b5b905060200201358152602001858152506040518263ffffffff1660e01b8152600401611ee69190612515565b60206040518083038186803b158015611efe57600080fd5b505af4158015611f12573d6000803e3d6000fd5b505050506040513d601f19601f82011682018060405250810190611f369190612545565b91505b806001019050611c5a565b5088600101548114925050509695505050505050565b8260028101928215611f89579160200282015b82811115611f88578251825591602001919060010190611f6d565b5b509050611f969190611f9a565b5090565b5b80821115611fb3576000816000905550600101611f9b565b5090565b600080fd5b600080fd5b6000819050919050565b611fd481611fc1565b8114611fdf57600080fd5b50565b600081359050611ff181611fcb565b92915050565b6000819050919050565b61200a81611ff7565b811461201557600080fd5b50565b60008135905061202781612001565b92915050565b600080fd5b600080fd5b600080fd5b60008083601f8401126120525761205161202d565b5b8235905067ffffffffffffffff81111561206f5761206e612032565b5b60208301915083602082028301111561208b5761208a612037565b5b9250929050565b60008083601f8401126120a8576120a761202d565b5b8235905067ffffffffffffffff8111156120c5576120c4612032565b5b6020830191508360208202830111156120e1576120e0612037565b5b9250929050565b6000806000806000806080878903121561210557612104611fb7565b5b600061211389828a01611fe2565b965050602061212489828a01612018565b955050604087013567ffffffffffffffff81111561214557612144611fbc565b5b61215189828a0161203c565b9450945050606087013567ffffffffffffffff81111561217457612173611fbc565b5b61218089828a01612092565b92509250509295509295509295565b6000806000606084860312156121a8576121a7611fb7565b5b60006121b686828701611fe2565b93505060206121c786828701612018565b92505060406121d886828701612018565b9150509250925092565b6121eb81611ff7565b82525050565b600060208201905061220660008301846121e2565b92915050565b6000806040838503121561222357612222611fb7565b5b600061223185828601611fe2565b925050602061224285828601612018565b9150509250929050565b60006020828403121561226257612261611fb7565b5b600061227084828501612018565b91505092915050565b600080600080600080600060a0888a03121561229857612297611fb7565b5b60006122a68a828b01611fe2565b97505060206122b78a828b01612018565b96505060406122c88a828b01612018565b955050606088013567ffffffffffffffff8111156122e9576122e8611fbc565b5b6122f58a828b0161203c565b9450945050608088013567ffffffffffffffff81111561231857612317611fbc565b5b6123248a828b01612092565b925092505092959891949750929550565b600082825260208201905092915050565b7f496e6372656d656e74616c42696e617279547265653a206c656166206d75737460008201527f206265203c20534e41524b5f5343414c41525f4649454c440000000000000000602082015250565b60006123a2603883612335565b91506123ad82612346565b604082019050919050565b600060208201905081810360008301526123d181612395565b9050919050565b7f496e6372656d656e74616c42696e617279547265653a2074726565206465707460008201527f68206d757374206265206265747765656e203120616e64203332000000000000602082015250565b6000612434603a83612335565b915061243f826123d8565b604082019050919050565b6000602082019050818103600083015261246381612427565b9050919050565b600060029050919050565b600081905092915050565b6000819050919050565b61249381611ff7565b82525050565b60006124a5838361248a565b60208301905092915050565b6000602082019050919050565b6124c78161246a565b6124d18184612475565b92506124dc82612480565b8060005b8381101561250d5781516124f48782612499565b96506124ff836124b1565b9250506001810190506124e0565b505050505050565b600060408201905061252a60008301846124be565b92915050565b60008151905061253f81612001565b92915050565b60006020828403121561255b5761255a611fb7565b5b600061256984828501612530565b91505092915050565b7f4e487b7100000000000000000000000000000000000000000000000000000000600052601160045260246000fd5b60008160011c9050919050565b6000808291508390505b60018511156125f8578086048111156125d4576125d3612572565b5b60018516156125e35780820291505b80810290506125f1856125a1565b94506125b8565b94509492505050565b60008261261157600190506126cd565b8161261f57600090506126cd565b8160018114612635576002811461263f5761266e565b60019150506126cd565b60ff84111561265157612650612572565b5b8360020a91508482111561266857612667612572565b5b506126cd565b5060208310610133831016604e8410600b84101617156126a35782820a90508381111561269e5761269d612572565b5b6126cd565b6126b084848460016125ae565b925090508184048111156126c7576126c6612572565b5b81810290505b9392505050565b60006126df82611ff7565b91506126ea83611ff7565b92506127177fffffffffffffffffffffffffffffffffffffffffffffffffffffffffffffffff8484612601565b905092915050565b7f496e6372656d656e74616c42696e617279547265653a2074726565206973206660008201527f756c6c0000000000000000000000000000000000000000000000000000000000602082015250565b600061277b602383612335565b91506127868261271f565b604082019050919050565b600060208201905081810360008301526127aa8161276e565b9050919050565b7f4e487b7100000000000000000000000000000000000000000000000000000000600052603260045260246000fd5b600060029050919050565b6000819050919050565b60008160001c9050919050565b6000819050919050565b600061281f61281a836127f5565b612802565b9050919050565b6000612832825461280c565b9050919050565b6000600182019050919050565b61284f816127e0565b6128598184612475565b9250612864826127eb565b8060005b8381101561289c5761287982612826565b6128838782612499565b965061288e83612839565b925050600181019050612868565b505050505050565b60006040820190506128b96000830184612846565b92915050565b60006128ca82611ff7565b91506128d583611ff7565b9250827fffffffffffffffffffffffffffffffffffffffffffffffffffffffffffffffff0382111561290a57612909612572565b5b828201905092915050565b7f496e6372656d656e74616c42696e617279547265653a2064656661756c745a6560008201527f726f2062616420696e6465780000000000000000000000000000000000000000602082015250565b6000612971602c83612335565b915061297c82612915565b604082019050919050565b600060208201905081810360008301526129a081612964565b9050919050565b7f496e6372656d656e74616c42696e617279547265653a206e6577206c6561662060008201527f63616e6e6f74206265207468652073616d6520617320746865206f6c64206f6e60208201527f6500000000000000000000000000000000000000000000000000000000000000604082015250565b6000612a29604183612335565b9150612a34826129a7565b606082019050919050565b60006020820190508181036000830152612a5881612a1c565b9050919050565b7f496e6372656d656e74616c42696e617279547265653a206e6577206c6561662060008201527f6d757374206265203c20534e41524b5f5343414c41525f4649454c4400000000602082015250565b6000612abb603c83612335565b9150612ac682612a5f565b604082019050919050565b60006020820190508181036000830152612aea81612aae565b9050919050565b7f496e6372656d656e74616c42696e617279547265653a206c656166206973206e60008201527f6f742070617274206f6620746865207472656500000000000000000000000000602082015250565b6000612b4d603383612335565b9150612b5882612af1565b604082019050919050565b60006020820190508181036000830152612b7c81612b40565b9050919050565b600060ff82169050919050565b612b9981612b83565b8114612ba457600080fd5b50565b600081359050612bb681612b90565b92915050565b600060208284031215612bd257612bd1611fb7565b5b6000612be084828501612ba7565b91505092915050565b7f496e6372656d656e74616c42696e617279547265653a206c65616620696e646560008201527f78206f7574206f662072616e6765000000000000000000000000000000000000602082015250565b6000612c45602e83612335565b9150612c5082612be9565b604082019050919050565b60006020820190508181036000830152612c7481612c38565b9050919050565b7f496e6372656d656e74616c42696e617279547265653a206c656e677468206f6660008201527f2070617468206973206e6f7420636f7272656374000000000000000000000000602082015250565b6000612cd7603483612335565b9150612ce282612c7b565b604082019050919050565b60006020820190508181036000830152612d0681612cca565b9050919050565b7f496e6372656d656e74616c42696e617279547265653a207369626c696e67206e60008201527f6f6465206d757374206265203c20534e41524b5f5343414c41525f4649454c44602082015250565b6000612d69604083612335565b9150612d7482612d0d565b604082019050919050565b60006020820190508181036000830152612d9881612d5c565b9050919050565b7f496e6372656d656e74616c42696e617279547265653a207061746820696e646560008201527f78206973206e6569746865722030206e6f722031000000000000000000000000602082015250565b6000612dfb603483612335565b9150612e0682612d9f565b604082019050919050565b60006020820190508181036000830152612e2a81612dee565b905091905056fea26469706673582212205fe35ade60623b50c5b15d036e61a2f8c344e885f2393552d035ae48b21bf5c464736f6c63430008090033",
  "linkReferences": {
    "poseidon-solidity/PoseidonT3.sol": {
      "PoseidonT3": [
        {
          "length": 20,
          "start": 2243
        },
        {
          "length": 20,
          "start": 3018
        },
        {
          "length": 20,
          "start": 6138
        },
        {
          "length": 20,
          "start": 6458
        },
        {
          "length": 20,
          "start": 7702
        },
        {
          "length": 20,
          "start": 7892
        }
      ]
    }
  },
  "deployedLinkReferences": {
    "poseidon-solidity/PoseidonT3.sol": {
      "PoseidonT3": [
        {
          "length": 20,
          "start": 2160
        },
        {
          "length": 20,
          "start": 2935
        },
        {
          "length": 20,
          "start": 6055
        },
        {
          "length": 20,
          "start": 6375
        },
        {
          "length": 20,
          "start": 7619
        },
        {
          "length": 20,
          "start": 7809
        }
      ]
    }
  }
}