{"@zk-kit/incremental-merkle-tree.sol/IncrementalBinaryTree.sol":{"IncrementalBinaryTree":{"abi":[{"inputs":[],"name":"Z_0","outputs":[{"internalType":"uint256","name":"","type":"uint256"}],"stateMutability":"view","type":"function"},{"inputs":[],"name":"Z_1","outputs":[{"internalType":"uint256","name":"","type":"uint256"}],"stateMutability":"view","type":"function"},{"inputs":[],"name":"Z_10","outputs":[{"internalType":"uint256","name":"","type":"uint256"}],"stateMutability":"view","type":"function"},{"inputs":[],"name":"Z_11","outputs":[{"internalType":"uint256","name":"","type":"uint256"}],"stateMutability":"view","type":"function"},{"inputs":[],"name":"Z_12","outputs":[{"internalType":"uint256","name":"","type":"uint256"}],"stateMutability":"view","type":"function"},{"inputs":[],"name":"Z_13","outputs":[{"internalType":"uint256","name":"","type":"uint256"}],"stateMutability":"view","type":"function"},{"inputs":[],"name":"Z_14","outputs":[{"internalType":"uint256","name":"","type":"uint256"}],"stateMutability":"view","type":"function"},{"inputs":[],"name":"Z_15","outputs":[{"internalType":"uint256","name":"","type":"uint256"}],"stateMutability":"view","type":"function"},{"inputs":[],"name":"Z_16","outputs":[{"internalType":"uint256","name":"","type":"uint256"}],"stateMutability":"view","type":"function"},{"inputs":[],"name":"Z_17","outputs":[{"internalType":"uint256","name":"","type":"uint256"}],"stateMutability":"view","type":"function"},{"inputs":[],"name":"Z_18","outputs":[{"internalType":"uint256","name":"","type":"uint256"}],"stateMutability":"view","type":"function"},{"inputs":[],"name":"Z_19","outputs":[{"internalType":"uint256","name":"","type":"uint256"}],"stateMutability":"view","type":"function"},{"inputs":[],"name":"Z_2","outputs":[{"internalType":"uint256","name":"","type":"uint256"}],"stateMutability":"view","type":"function"},{"inputs":[],"name":"Z_20","outputs":[{"internalType":"uint256","name":"","type":"uint256"}],"stateMutability":"view","type":"function"},{"inputs":[],"name":"Z_21","outputs":[{"internalType":"uint256","name":"","type":"uint256"}],"stateMutability":"view","type":"function"},{"inputs":[],"name":"Z_22","outputs":[{"internalType":"uint256","name":"","type":"uint256"}],"stateMutability":"view","type":"function"},{"inputs":[],"name":"Z_23","outputs":[{"internalType":"uint256","name":"","type":"uint256"}],"stateMutability":"view","type":"function"},{"inputs":[],"name":"Z_24","outputs":[{"internalType":"uint256","name":"","type":"uint256"}],"stateMutability":"view","type":"function"},{"inputs":[],"name":"Z_25","outputs":[{"internalType":"uint256","name":"","type":"uint256"}],"stateMutability":"view","type":"function"},{"inputs":[],"name":"Z_26","outputs":[{"internalType":"uint256","name":"","type":"uint256"}],"stateMutability":"view","type":"function"},{"inputs":[],"name":"Z_27","outputs":[{"internalType":"uint256","name":"","type":"uint256"}],"stateMutability":"view","type":"function"},{"inputs":[],"name":"Z_28","outputs":[{"internalType":"uint256","name":"","type":"uint256"}],"stateMutability":"view","type":"function"},{"inputs":[],"name":"Z_29","outputs":[{"internalType":"uint256","name":"","type":"uint256"}],"stateMutability":"view","type":"function"},{"inputs":[],"name":"Z_3","outputs":[{"internalType":"uint256","name":"","type":"uint256"}],"stateMutability":"view","type":"function"},{"inputs":[],"name":"Z_30","outputs":[{"internalType":"uint256","name":"","type":"uint256"}],"stateMutability":"view","type":"function"},{"inputs":[],"name":"Z_31","outputs":[{"internalType":"uint256","name":"","type":"uint256"}],"stateMutability":"view","type":"function"},{"inputs":[],"name":"Z_32","outputs":[{"internalType":"uint256","name":"","type":"uint256"}],"stateMutability":"view","type":"function"},{"inputs":[],"name":"Z_4","outputs":[{"internalType":"uint256","name":"","type":"uint256"}],"stateMutability":"view","type":"function"},{"inputs":[],"name":"Z_5","outputs":[{"internalType":"uint256","name":"","type":"uint256"}],"stateMutability":"view","type":"function"},{"inputs":[],"name":"Z_6","outputs":[{"internalType":"uint256","name":"","type":"uint256"}],"stateMutability":"view","type":"function"},{"inputs":[],"name":"Z_7","outputs":[{"internalType":"uint256","name":"","type":"uint256"}],"stateMutability":"view","type":"function"},{"inputs":[],"name":"Z_8","outputs":[{"internalType":"uint256","name":"","type":"uint256"}],"stateMutability":"view","type":"function"},{"inputs":[],"name":"Z_9","outputs":[{"internalType":"uint256","name":"","type":"uint256"}],"stateMutability":"view","type":"function"},{"inputs":[{"internalType":"uint256","name":"index","type":"uint256"}],"name":"defaultZero","outputs":[{"internalType":"uint256","name":"","type":"uint256"}],"stateMutability":"pure","type":"function"}],"evm":{"bytecode":{"linkReferences":{"poseidon-solidity/PoseidonT3.sol":{"PoseidonT3":[{"length":20,"start":2243},{"length":20,"start":3018},{"length":20,"start":6138},{"length":20,"start":6458},{"length":20,"start":7702},{"length":20,"start":7892}]}},"object":"612e67610053600b82828239805160001a607314610046577f4e487b7100000000000000000000000000000000000000000000000000000000600052600060045260246000fd5b30600052607381538281f3fe73000000000000000000000000000000000000000030146080604052600436106102475760003560e01c806365ad985e11610145578063b1849a1a116100c2578063c7fadc6711610086578063c7fadc67146106a5578063ccbad174146106c3578063d2aa5c62146106e1578063eb095a7d146106ff578063f49babe61461071d57610247565b8063b1849a1a1461060f578063b410396a1461062d578063b5f35eb91461064b578063c0c5bf6714610669578063c6675bbf1461068757610247565b80639bf21071116101095780639bf210711461056e5780639cda47741461058c578063a3205067146105aa578063a5478827146105c8578063af9d047c146105f157610247565b806365ad985e146104d857806365f7bec3146104f65780638836ccf61461051457806389d0e93214610532578063948042151461055057610247565b80633994a957116101d3578063565b427e11610197578063565b427e14610442578063583f8af4146104605780635da707d41461047e5780635fcde0671461049c57806364048bf2146104ba57610247565b80633994a957146103ac57806344f9e1ac146103ca57806352be1fb8146103e857806354f5a9011461040657806355005f761461042457610247565b8063168703fa1161021a578063168703fa146102e557806318f18fb1146103225780631ddbea001461035257806330314fc014610370578063309ec3c31461038e57610247565b80630629596f1461024c5780631095fbb414610275578063115055441461029e57806312b3a2fb146102bc575b600080fd5b81801561025857600080fd5b50610273600480360381019061026e91906120e8565b61073b565b005b81801561028157600080fd5b5061029c6004803603810190610297919061218f565b610785565b005b6102a6610925565b6040516102b391906121f1565b60405180910390f35b8180156102c857600080fd5b506102e360048036038101906102de919061220c565b610949565b005b8180156102f157600080fd5b5061030c6004803603810190610307919061220c565b6109d7565b60405161031991906121f1565b60405180910390f35b61033c6004803603810190610337919061224c565b610c5a565b60405161034991906121f1565b60405180910390f35b61035a6112cd565b60405161036791906121f1565b60405180910390f35b6103786112f1565b60405161038591906121f1565b60405180910390f35b610396611315565b6040516103a391906121f1565b60405180910390f35b6103b4611339565b6040516103c191906121f1565b60405180910390f35b6103d261135d565b6040516103df91906121f1565b60405180910390f35b6103f0611381565b6040516103fd91906121f1565b60405180910390f35b61040e6113a5565b60405161041b91906121f1565b60405180910390f35b61042c6113c9565b60405161043991906121f1565b60405180910390f35b61044a6113ed565b60405161045791906121f1565b60405180910390f35b610468611411565b60405161047591906121f1565b60405180910390f35b610486611435565b60405161049391906121f1565b60405180910390f35b6104a4611459565b6040516104b191906121f1565b60405180910390f35b6104c261147d565b6040516104cf91906121f1565b60405180910390f35b6104e06114a1565b6040516104ed91906121f1565b60405180910390f35b6104fe6114a6565b60405161050b91906121f1565b60405180910390f35b61051c6114ca565b60405161052991906121f1565b60405180910390f35b61053a6114ee565b60405161054791906121f1565b60405180910390f35b610558611512565b60405161056591906121f1565b60405180910390f35b610576611536565b60405161058391906121f1565b60405180910390f35b61059461155a565b6040516105a191906121f1565b60405180910390f35b6105b261157e565b6040516105bf91906121f1565b60405180910390f35b8180156105d457600080fd5b506105ef60048036038101906105ea9190612279565b6115a2565b005b6105f9611a06565b60405161060691906121f1565b60405180910390f35b610617611a2a565b60405161062491906121f1565b60405180910390f35b610635611a4e565b60405161064291906121f1565b60405180910390f35b610653611a72565b60405161066091906121f1565b60405180910390f35b610671611a96565b60405161067e91906121f1565b60405180910390f35b61068f611aba565b60405161069c91906121f1565b60405180910390f35b6106ad611ade565b6040516106ba91906121f1565b60405180910390f35b6106cb611b02565b6040516106d891906121f1565b60405180910390f35b6106e9611b26565b6040516106f691906121f1565b60405180910390f35b610707611b4a565b60405161071491906121f1565b60405180910390f35b610725611b6e565b60405161073291906121f1565b60405180910390f35b61077d86868860050160009054906101000a900460ff166107715788600301600080815260200190815260200160002054610774565b60005b878787876115a2565b505050505050565b7f30644e72e131a029b85045b68181585d2833e84879b9709143e1f593f000000181106107e7576040517f08c379a00000000000000000000000000000000000000000000000000000000081526004016107de906123b8565b60405180910390fd5b6000821180156107fb5750602060ff168211155b61083a576040517f08c379a00000000000000000000000000000000000000000000000000000000081526004016108319061244a565b60405180910390fd5b81836000018190555060005b828160ff16101561091657818460030160008360ff1681526020019081526020016000208190555073__$75f79a42d9bcbdbb69ad79ebd80f556f39$__63561558fe6040518060400160405280858152602001858152506040518263ffffffff1660e01b81526004016108b99190612515565b60206040518083038186803b1580156108d157600080fd5b505af41580156108e5573d6000803e3d6000fd5b505050506040513d601f19601f820116820180604052508101906109099190612545565b9150806001019050610846565b50808360010181905550505050565b7f120c58f143d491e95902f7f5277778a2e0ad5168f6add75669932630ce61151881565b60008111801561095d5750602060ff168111155b61099c576040517f08c379a00000000000000000000000000000000000000000000000000000000081526004016109939061244a565b60405180910390fd5b80826000018190555060018260050160006101000a81548160ff0219169083151502179055506109cb81610c5a565b82600101819055505050565b600080836000015490507f30644e72e131a029b85045b68181585d2833e84879b9709143e1f593f00000018310610a43576040517f08c379a0000000000000000000000000000000000000000000000000000000008152600401610a3a906123b8565b60405180910390fd5b806002610a5091906126d4565b846002015410610a95576040517f08c379a0000000000000000000000000000000000000000000000000000000008152600401610a8c90612791565b60405180910390fd5b600084600201549050600084905060008660050160009054906101000a900460ff16905060005b848160ff161015610c27576000600185161415610b4357604051806040016040528084815260200183610b07578960030160008460ff16815260200190815260200160002054610b14565b610b138360ff16610c5a565b5b8152508860040160008360ff168152602001908152602001600020906002610b3d929190611f5a565b50610b75565b828860040160008360ff168152602001908152602001600020600160028110610b6f57610b6e6127b1565b5b01819055505b73__$75f79a42d9bcbdbb69ad79ebd80f556f39$__63561558fe8960040160008460ff1681526020019081526020016000206040518263ffffffff1660e01b8152600401610bc391906128a4565b60206040518083038186803b158015610bdb57600080fd5b505af4158015610bef573d6000803e3d6000fd5b505050506040513d601f19601f82011682018060405250810190610c139190612545565b9250600184901c9350806001019050610abc565b508187600101819055506001876002016000828254610c4691906128bf565b925050819055508194505050505092915050565b600080821415610c6d57600090506112c8565b6001821415610c9e577f2098f5fb9e239eab3ceac3f27b81e481dc3124d55ffed523a839ee8446b6486490506112c8565b6002821415610ccf577f1069673dcdb12263df301a6ff584a7ec261a44cb9dc68df067a4774460b1f1e190506112c8565b6003821415610d00577f18f43331537ee2af2e3d758d50f72106467c6eea50371dd528d57eb2b856d23890506112c8565b6004821415610d31577f07f9d837cb17b0d36320ffe93ba52345f1b728571a568265caac97559dbc952a90506112c8565b6005821415610d62577f2b94cf5e8746b3f5c9631f4c5df32907a699c58c94b2ad4d7b5cec1639183f5590506112c8565b6006821415610d93577f2dee93c5a666459646ea7d22cca9e1bcfed71e6951b953611d11dda32ea09d7890506112c8565b6007821415610dc4577f078295e5a22b84e982cf601eb639597b8b0515a88cb5ac7fa8a4aabe3c87349d90506112c8565b6008821415610df5577f2fa5e5f18f6027a6501bec864564472a616b2e274a41211a444cbe3a99f3cc6190506112c8565b6009821415610e26577f0e884376d0d8fd21ecb780389e941f66e45e7acce3e228ab3e2156a614fcd74790506112c8565b600a821415610e57577f1b7201da72494f1e28717ad1a52eb469f95892f957713533de6175e5da190af290506112c8565b600b821415610e88577f1f8d8822725e36385200c0b201249819a6e6e1e4650808b5bebc6bface7d763690506112c8565b600c821415610eb9577f2c5d82f66c914bafb9701589ba8cfcfb6162b0a12acf88a8d0879a0471b5f85a90506112c8565b600d821415610eea577f14c54148a0940bb820957f5adf3fa1134ef5c4aaa113f4646458f270e0bfbfd090506112c8565b600e821415610f1b577f190d33b12f986f961e10c0ee44d8b9af11be25588cad89d416118e4bf4ebe80c90506112c8565b600f821415610f4c577f22f98aa9ce704152ac17354914ad73ed1167ae6596af510aa5b3649325e06c9290506112c8565b6010821415610f7d577f2a7c7c9b6ce5880b9f6f228d72bf6a575a526f29c66ecceef8b753d38bba732390506112c8565b6011821415610fae577f2e8186e558698ec1c67af9c14d463ffc470043c9c2988b954d75dd643f36b99290506112c8565b6012821415610fdf577f0f57c5571e9a4eab49e2c8cf050dae948aef6ead647392273546249d1c1ff10f90506112c8565b6013821415611010577f1830ee67b5fb554ad5f63d4388800e1cfe78e310697d46e43c9ce36134f72cca90506112c8565b6014821415611041577f2134e76ac5d21aab186c2be1dd8f84ee880a1e46eaf712f9d371b6df22191f3e90506112c8565b6015821415611072577f19df90ec844ebc4ffeebd866f33859b0c051d8c958ee3aa88f8f8df3db91a5b190506112c8565b60168214156110a3577f18cca2a66b5c0787981e69aefd84852d74af0e93ef4912b4648c05f722efe52b90506112c8565b60178214156110d4577f2388909415230d1b4d1304d2d54f473a628338f2efad83fadf05644549d2538d90506112c8565b6018821415611105577f27171fb4a97b6cc0e9e8f543b5294de866a2af2c9c8d0b1d96e673e4529ed54090506112c8565b6019821415611136577f2ff6650540f629fd5711a0bc74fc0d28dcb230b9392583e5f8d59696dde6ae2190506112c8565b601a821415611167577f120c58f143d491e95902f7f5277778a2e0ad5168f6add75669932630ce61151890506112c8565b601b821415611198577f1f21feb70d3f21b07bf853d5e5db03071ec495a0a565a21da2d665d27948379590506112c8565b601c8214156111c9577f24be905fa71335e14c638cc0f66a8623a826e768068a9e968bb1a1dde18a72d290506112c8565b601d8214156111fa577f0f8666b62ed17491c50ceadead57d4cd597ef3821d65c328744c74e553dac26d90506112c8565b601e82141561122b577f0918d46bf52d98b034413f4a1a1c41594e7a7a3f6ae08cb43d1a2a230e1959ef90506112c8565b601f82141561125c577f1bbeb01b4c479ecde76917645e404dfa2e26f90d0afc5a65128513ad375c5ff290506112c8565b602082141561128d577f2f68a1c58e257e42a17a6c61dff5551ed560b9922ab119d5ac8e184c9734ead990506112c8565b6040517f08c379a00000000000000000000000000000000000000000000000000000000081526004016112bf90612987565b60405180910390fd5b919050565b7f2388909415230d1b4d1304d2d54f473a628338f2efad83fadf05644549d2538d81565b7f18cca2a66b5c0787981e69aefd84852d74af0e93ef4912b4648c05f722efe52b81565b7f2e8186e558698ec1c67af9c14d463ffc470043c9c2988b954d75dd643f36b99281565b7f2ff6650540f629fd5711a0bc74fc0d28dcb230b9392583e5f8d59696dde6ae2181565b7f24be905fa71335e14c638cc0f66a8623a826e768068a9e968bb1a1dde18a72d281565b7f1069673dcdb12263df301a6ff584a7ec261a44cb9dc68df067a4774460b1f1e181565b7f14c54148a0940bb820957f5adf3fa1134ef5c4aaa113f4646458f270e0bfbfd081565b7f0f57c5571e9a4eab49e2c8cf050dae948aef6ead647392273546249d1c1ff10f81565b7f2dee93c5a666459646ea7d22cca9e1bcfed71e6951b953611d11dda32ea09d7881565b7f2fa5e5f18f6027a6501bec864564472a616b2e274a41211a444cbe3a99f3cc6181565b7f27171fb4a97b6cc0e9e8f543b5294de866a2af2c9c8d0b1d96e673e4529ed54081565b7f078295e5a22b84e982cf601eb639597b8b0515a88cb5ac7fa8a4aabe3c87349d81565b7f1830ee67b5fb554ad5f63d4388800e1cfe78e310697d46e43c9ce36134f72cca81565b600081565b7f190d33b12f986f961e10c0ee44d8b9af11be25588cad89d416118e4bf4ebe80c81565b7f18f43331537ee2af2e3d758d50f72106467c6eea50371dd528d57eb2b856d23881565b7f2a7c7c9b6ce5880b9f6f228d72bf6a575a526f29c66ecceef8b753d38bba732381565b7f0e884376d0d8fd21ecb780389e941f66e45e7acce3e228ab3e2156a614fcd74781565b7f2c5d82f66c914bafb9701589ba8cfcfb6162b0a12acf88a8d0879a0471b5f85a81565b7f0f8666b62ed17491c50ceadead57d4cd597ef3821d65c328744c74e553dac26d81565b7f22f98aa9ce704152ac17354914ad73ed1167ae6596af510aa5b3649325e06c9281565b858514156115e5576040517f08c379a00000000000000000000000000000000000000000000000000000000081526004016115dc90612a3f565b60405180910390fd5b7f30644e72e131a029b85045b68181585d2833e84879b9709143e1f593f00000018510611647576040517f08c379a000000000000000000000000000000000000000000000000000000000815260040161163e90612ad1565b60405180910390fd5b611655878786868686611b92565b611694576040517f08c379a000000000000000000000000000000000000000000000000000000000815260040161168b90612b63565b60405180910390fd5b6000876000015490506000869050600080600090505b838160ff1610156119aa578060ff1686868360ff168181106116cf576116ce6127b1565b5b90506020020160208101906116e49190612bbc565b60ff16901b82179150600086868360ff16818110611705576117046127b1565b5b905060200201602081019061171a9190612bbc565b60ff161415611863578a60040160008260ff16815260200190815260200160002060016002811061174e5761174d6127b1565b5b015488888360ff16818110611766576117656127b1565b5b9050602002013514156117a557828b60040160008360ff16815260200190815260200160002060006002811061179f5761179e6127b1565b5b01819055505b73__$75f79a42d9bcbdbb69ad79ebd80f556f39$__63561558fe60405180604001604052808681526020018b8b8660ff168181106117e6576117e56127b1565b5b905060200201358152506040518263ffffffff1660e01b815260040161180c9190612515565b60206040518083038186803b15801561182457600080fd5b505af4158015611838573d6000803e3d6000fd5b505050506040513d601f19601f8201168201806040525081019061185c9190612545565b925061199f565b8a60040160008260ff16815260200190815260200160002060006002811061188e5761188d6127b1565b5b015488888360ff168181106118a6576118a56127b1565b5b9050602002013514156118e557828b60040160008360ff1681526020019081526020016000206001600281106118df576118de6127b1565b5b01819055505b73__$75f79a42d9bcbdbb69ad79ebd80f556f39$__63561558fe60405180604001604052808b8b8660ff168181106119205761191f6127b1565b5b905060200201358152602001868152506040518263ffffffff1660e01b815260040161194c9190612515565b60206040518083038186803b15801561196457600080fd5b505af4158015611978573d6000803e3d6000fd5b505050506040513d601f19601f8201168201806040525081019061199c9190612545565b92505b8060010190506116aa565b50896002015481106119f1576040517f08c379a00000000000000000000000000000000000000000000000000000000081526004016119e890612c5b565b60405180910390fd5b818a6001018190555050505050505050505050565b7f0918d46bf52d98b034413f4a1a1c41594e7a7a3f6ae08cb43d1a2a230e1959ef81565b7f19df90ec844ebc4ffeebd866f33859b0c051d8c958ee3aa88f8f8df3db91a5b181565b7f1f21feb70d3f21b07bf853d5e5db03071ec495a0a565a21da2d665d27948379581565b7f2134e76ac5d21aab186c2be1dd8f84ee880a1e46eaf712f9d371b6df22191f3e81565b7f2b94cf5e8746b3f5c9631f4c5df32907a699c58c94b2ad4d7b5cec1639183f5581565b7f07f9d837cb17b0d36320ffe93ba52345f1b728571a568265caac97559dbc952a81565b7f1bbeb01b4c479ecde76917645e404dfa2e26f90d0afc5a65128513ad375c5ff281565b7f2098f5fb9e239eab3ceac3f27b81e481dc3124d55ffed523a839ee8446b6486481565b7f1f8d8822725e36385200c0b201249819a6e6e1e4650808b5bebc6bface7d763681565b7f1b7201da72494f1e28717ad1a52eb469f95892f957713533de6175e5da190af281565b7f2f68a1c58e257e42a17a6c61dff5551ed560b9922ab119d5ac8e184c9734ead981565b60007f30644e72e131a029b85045b68181585d2833e84879b9709143e1f593f00000018610611bf6576040517f08c379a0000000000000000000000000000000000000000000000000000000008152600401611bed906123b8565b60405180910390fd5b6000876000015490508084849050148015611c1357508086869050145b611c52576040517f08c379a0000000000000000000000000000000000000000000000000000000008152600401611c4990612ced565b60405180910390fd5b600087905060005b828160ff161015611f44577f30644e72e131a029b85045b68181585d2833e84879b9709143e1f593f000000188888360ff16818110611c9c57611c9b6127b1565b5b9050602002013510611ce3576040517f08c379a0000000000000000000000000000000000000000000000000000000008152600401611cda90612d7f565b60405180910390fd5b600186868360ff16818110611cfb57611cfa6127b1565b5b9050602002016020810190611d109190612bbc565b60ff161480611d4c5750600086868360ff16818110611d3257611d316127b1565b5b9050602002016020810190611d479190612bbc565b60ff16145b611d8b576040517f08c379a0000000000000000000000000000000000000000000000000000000008152600401611d8290612e11565b60405180910390fd5b600086868360ff16818110611da357611da26127b1565b5b9050602002016020810190611db89190612bbc565b60ff161415611e7f5773__$75f79a42d9bcbdbb69ad79ebd80f556f39$__63561558fe60405180604001604052808581526020018b8b8660ff16818110611e0257611e016127b1565b5b905060200201358152506040518263ffffffff1660e01b8152600401611e289190612515565b60206040518083038186803b158015611e4057600080fd5b505af4158015611e54573d6000803e3d6000fd5b505050506040513d601f19601f82011682018060405250810190611e789190612545565b9150611f39565b73__$75f79a42d9bcbdbb69ad79ebd80f556f39$__63561558fe60405180604001604052808b8b8660ff16818110611eba57611eb96127b1565b5b905060200201358152602001858152506040518263ffffffff1660e01b8152600401611ee69190612515565b60206040518083038186803b158015611efe57600080fd5b505af4158015611f12573d6000803e3d6000fd5b505050506040513d601f19601f82011682018060405250810190611f369190612545565b91505b806001019050611c5a565b5088600101548114925050509695505050505050565b8260028101928215611f89579160200282015b82811115611f88578251825591602001919060010190611f6d565b5b509050611f969190611f9a565b5090565b5b80821115611fb3576000816000905550600101611f9b565b5090565b600080fd5b600080fd5b6000819050919050565b611fd481611fc1565b8114611fdf57600080fd5b50565b600081359050611ff181611fcb565b92915050565b6000819050919050565b61200a81611ff7565b811461201557600080fd5b50565b60008135905061202781612001565b92915050565b600080fd5b600080fd5b600080fd5b60008083601f8401126120525761205161202d565b5b8235905067ffffffffffffffff81111561206f5761206e612032565b5b60208301915083602082028301111561208b5761208a612037565b5b9250929050565b60008083601f8401126120a8576120a761202d565b5b8235905067ffffffffffffffff8111156120c5576120c4612032565b5b6020830191508360208202830111156120e1576120e0612037565b5b9250929050565b6000806000806000806080878903121561210557612104611fb7565b5b600061211389828a01611fe2565b965050602061212489828a01612018565b955050604087013567ffffffffffffffff81111561214557612144611fbc565b5b61215189828a0161203c565b9450945050606087013567ffffffffffffffff81111561217457612173611fbc565b5b61218089828a01612092565b92509250509295509295509295565b6000806000606084860312156121a8576121a7611fb7565b5b60006121b686828701611fe2565b93505060206121c786828701612018565b92505060406121d886828701612018565b9150509250925092565b6121eb81611ff7565b82525050565b600060208201905061220660008301846121e2565b92915050565b6000806040838503121561222357612222611fb7565b5b600061223185828601611fe2565b925050602061224285828601612018565b9150509250929050565b60006020828403121561226257612261611fb7565b5b600061227084828501612018565b91505092915050565b600080600080600080600060a0888a03121561229857612297611fb7565b5b60006122a68a828b01611fe2565b97505060206122b78a828b01612018565b96505060406122c88a828b01612018565b955050606088013567ffffffffffffffff8111156122e9576122e8611fbc565b5b6122f58a828b0161203c565b9450945050608088013567ffffffffffffffff81111561231857612317611fbc565b5b6123248a828b01612092565b925092505092959891949750929550565b600082825260208201905092915050565b7f496e6372656d656e74616c42696e617279547265653a206c656166206d75737460008201527f206265203c20534e41524b5f5343414c41525f4649454c440000000000000000602082015250565b60006123a2603883612335565b91506123ad82612346565b604082019050919050565b600060208201905081810360008301526123d181612395565b9050919050565b7f496e6372656d656e74616c42696e617279547265653a2074726565206465707460008201527f68206d757374206265206265747765656e203120616e64203332000000000000602082015250565b6000612434603a83612335565b915061243f826123d8565b604082019050919050565b6000602082019050818103600083015261246381612427565b9050919050565b600060029050919050565b600081905092915050565b6000819050919050565b61249381611ff7565b82525050565b60006124a5838361248a565b60208301905092915050565b6000602082019050919050565b6124c78161246a565b6124d18184612475565b92506124dc82612480565b8060005b8381101561250d5781516124f48782612499565b96506124ff836124b1565b9250506001810190506124e0565b505050505050565b600060408201905061252a60008301846124be565b92915050565b60008151905061253f81612001565b92915050565b60006020828403121561255b5761255a611fb7565b5b600061256984828501612530565b91505092915050565b7f4e487b7100000000000000000000000000000000000000000000000000000000600052601160045260246000fd5b60008160011c9050919050565b6000808291508390505b60018511156125f8578086048111156125d4576125d3612572565b5b60018516156125e35780820291505b80810290506125f1856125a1565b94506125b8565b94509492505050565b60008261261157600190506126cd565b8161261f57600090506126cd565b8160018114612635576002811461263f5761266e565b60019150506126cd565b60ff84111561265157612650612572565b5b8360020a91508482111561266857612667612572565b5b506126cd565b5060208310610133831016604e8410600b84101617156126a35782820a90508381111561269e5761269d612572565b5b6126cd565b6126b084848460016125ae565b925090508184048111156126c7576126c6612572565b5b81810290505b9392505050565b60006126df82611ff7565b91506126ea83611ff7565b92506127177fffffffffffffffffffffffffffffffffffffffffffffffffffffffffffffffff8484612601565b905092915050565b7f496e6372656d656e74616c42696e617279547265653a2074726565206973206660008201527f756c6c0000000000000000000000000000000000000000000000000000000000602082015250565b600061277b602383612335565b91506127868261271f565b604082019050919050565b600060208201905081810360008301526127aa8161276e565b9050919050565b7f4e487b7100000000000000000000000000000000000000000000000000000000600052603260045260246000fd5b600060029050919050565b6000819050919050565b60008160001c9050919050565b6000819050919050565b600061281f61281a836127f5565b612802565b9050919050565b6000612832825461280c565b9050919050565b6000600182019050919050565b61284f816127e0565b6128598184612475565b9250612864826127eb565b8060005b8381101561289c5761287982612826565b6128838782612499565b965061288e83612839565b925050600181019050612868565b505050505050565b60006040820190506128b96000830184612846565b92915050565b60006128ca82611ff7565b91506128d583611ff7565b9250827fffffffffffffffffffffffffffffffffffffffffffffffffffffffffffffffff0382111561290a57612909612572565b5b828201905092915050565b7f496e6372656d656e74616c42696e617279547265653a2064656661756c745a6560008201527f726f2062616420696e6465780000000000000000000000000000000000000000602082015250565b6000612971602c83612335565b915061297c82612915565b604082019050919050565b600060208201905081810360008301526129a081612964565b9050919050565b7f496e6372656d656e74616c42696e617279547265653a206e6577206c6561662060008201527f63616e6e6f74206265207468652073616d6520617320746865206f6c64206f6e60208201527f6500000000000000000000000000000000000000000000000000000000000000604082015250565b6000612a29604183612335565b9150612a34826129a7565b606082019050919050565b60006020820190508181036000830152612a5881612a1c565b9050919050565b7f496e6372656d656e74616c42696e617279547265653a206e6577206c6561662060008201527f6d757374206265203c20534e41524b5f5343414c41525f4649454c4400000000602082015250565b6000612abb603c83612335565b9150612ac682612a5f565b604082019050919050565b60006020820190508181036000830152612aea81612aae565b9050919050565b7f496e6372656d656e74616c42696e617279547265653a206c656166206973206e60008201527f6f742070617274206f6620746865207472656500000000000000000000000000602082015250565b6000612b4d603383612335565b9150612b5882612af1565b604082019050919050565b60006020820190508181036000830152612b7c81612b40565b9050919050565b600060ff82169050919050565b612b9981612b83565b8114612ba457600080fd5b50565b600081359050612bb681612b90565b92915050565b600060208284031215612bd257612bd1611fb7565b5b6000612be084828501612ba7565b91505092915050565b7f496e6372656d656e74616c42696e617279547265653a206c65616620696e646560008201527f78206f7574206f662072616e6765000000000000000000000000000000000000602082015250565b6000612c45602e83612335565b9150612c5082612be9565b604082019050919050565b60006020820190508181036000830152612c7481612c38565b9050919050565b7f496e6372656d656e74616c42696e617279547265653a206c656e677468206f6660008201527f2070617468206973206e6f7420636f7272656374000000000000000000000000602082015250565b6000612cd7603483612335565b9150612ce282612c7b565b604082019050919050565b60006020820190508181036000830152612d0681612cca565b9050919050565b7f496e6372656d656e74616c42696e617279547265653a207369626c696e67206e60008201527f6f6465206d757374206265203c20534e41524b5f5343414c41525f4649454c44602082015250565b6000612d69604083612335565b9150612d7482612d0d565b604082019050919050565b60006020820190508181036000830152612d9881612d5c565b9050919050565b7f496e6372656d656e74616c42696e617279547265653a207061746820696e646560008201527f78206973206e6569746865722030206e6f722031000000000000000000000000602082015250565b6000612dfb603483612335565b9150612e0682612d9f565b604082019050919050565b60006020820190508181036000830152612e2a81612dee565b905091905056fea26469706673582212205fe35ade60623b50c5b15d036e61a2f8c344e885f2393552d035ae48b21bf5c464736f6c63430008090033","opcodes":"PUSH2 0x2E67 PUSH2 0x53 PUSH1 0xB DUP3 DUP3 DUP3 CODECOPY DUP1 MLOAD PUSH1 0x0 BYTE PUSH1 0x73 EQ PUSH2 0x46 JUMPI PUSH32 0x4E487B7100000000000000000000000000000000000000000000000000000000 PUSH1 0x0 MSTORE PUSH1 0x0 PUSH1 0x4 MSTORE PUSH1 0x24 PUSH1 0x0 REVERT JUMPDEST ADDRESS PUSH1 0x0 MSTORE PUSH1 0x73 DUP2 MSTORE8 DUP3 DUP2 RETURN INVALID PUSH20 0x0 ADDRESS EQ PUSH1 0x80 PUSH1 0x40 MSTORE PUSH1 0x4 CALLDATASIZE LT PUSH2 0x247 JUMPI PUSH1 0x0 CALLDATALOAD PUSH1 0xE0 SHR DUP1 PUSH4 0x65AD985E GT PUSH2 0x145 JUMPI DUP1 PUSH4 0xB1849A1A GT PUSH2 0xC2 JUMPI DUP1 PUSH4 0xC7FADC67 GT PUSH2 0x86 JUMPI DUP1 PUSH4 0xC7FADC67 EQ PUSH2 0x6A5 JUMPI DUP1 PUSH4 0xCCBAD174 EQ PUSH2 0x6C3 JUMPI DUP1 PUSH4 0xD2AA5C62 EQ PUSH2 0x6E1 JUMPI DUP1 PUSH4 0xEB095A7D EQ PUSH2 0x6FF JUMPI DUP1 PUSH4 0xF49BABE6 EQ PUSH2 0x71D JUMPI PUSH2 0x247 JUMP JUMPDEST DUP1 PUSH4 0xB1849A1A EQ PUSH2 0x60F JUMPI DUP1 PUSH4 0xB410396A EQ PUSH2 0x62D JUMPI DUP1 PUSH4 0xB5F35EB9 EQ PUSH2 0x64B JUMPI DUP1 PUSH4 0xC0C5BF67 EQ PUSH2 0x669 JUMPI DUP1 PUSH4 0xC6675BBF EQ PUSH2 0x687 JUMPI PUSH2 0x247 JUMP JUMPDEST DUP1 PUSH4 0x9BF21071 GT PUSH2 0x109 JUMPI DUP1 PUSH4 0x9BF21071 EQ PUSH2 0x56E JUMPI DUP1 PUSH4 0x9CDA4774 EQ PUSH2 0x58C JUMPI DUP1 PUSH4 0xA3205067 EQ PUSH2 0x5AA JUMPI DUP1 PUSH4 0xA5478827 EQ PUSH2 0x5C8 JUMPI DUP1 PUSH4 0xAF9D047C EQ PUSH2 0x5F1 JUMPI PUSH2 0x247 JUMP JUMPDEST DUP1 PUSH4 0x65AD985E EQ PUSH2 0x4D8 JUMPI DUP1 PUSH4 0x65F7BEC3 EQ PUSH2 0x4F6 JUMPI DUP1 PUSH4 0x8836CCF6 EQ PUSH2 0x514 JUMPI DUP1 PUSH4 0x89D0E932 EQ PUSH2 0x532 JUMPI DUP1 PUSH4 0x94804215 EQ PUSH2 0x550 JUMPI PUSH2 0x247 JUMP JUMPDEST DUP1 PUSH4 0x3994A957 GT PUSH2 0x1D3 JUMPI DUP1 PUSH4 0x565B427E GT PUSH2 0x197 JUMPI DUP1 PUSH4 0x565B427E EQ PUSH2 0x442 JUMPI DUP1 PUSH4 0x583F8AF4 EQ PUSH2 0x460 JUMPI DUP1 PUSH4 0x5DA707D4 EQ PUSH2 0x47E JUMPI DUP1 PUSH4 0x5FCDE067 EQ PUSH2 0x49C JUMPI DUP1 PUSH4 0x64048BF2 EQ PUSH2 0x4BA JUMPI PUSH2 0x247 JUMP JUMPDEST DUP1 PUSH4 0x3994A957 EQ PUSH2 0x3AC JUMPI DUP1 PUSH4 0x44F9E1AC EQ PUSH2 0x3CA JUMPI DUP1 PUSH4 0x52BE1FB8 EQ PUSH2 0x3E8 JUMPI DUP1 PUSH4 0x54F5A901 EQ PUSH2 0x406 JUMPI DUP1 PUSH4 0x55005F76 EQ PUSH2 0x424 JUMPI PUSH2 0x247 JUMP JUMPDEST DUP1 PUSH4 0x168703FA GT PUSH2 0x21A JUMPI DUP1 PUSH4 0x168703FA EQ PUSH2 0x2E5 JUMPI DUP1 PUSH4 0x18F18FB1 EQ PUSH2 0x322 JUMPI DUP1 PUSH4 0x1DDBEA00 EQ PUSH2 0x352 JUMPI DUP1 PUSH4 0x30314FC0 EQ PUSH2 0x370 JUMPI DUP1 PUSH4 0x309EC3C3 EQ PUSH2 0x38E JUMPI PUSH2 0x247 JUMP JUMPDEST DUP1 PUSH4 0x629596F EQ PUSH2 0x24C JUMPI DUP1 PUSH4 0x1095FBB4 EQ PUSH2 0x275 JUMPI DUP1 PUSH4 0x11505544 EQ PUSH2 0x29E JUMPI DUP1 PUSH4 0x12B3A2FB EQ PUSH2 0x2BC JUMPI JUMPDEST PUSH1 0x0 DUP1 REVERT JUMPDEST DUP2 DUP1 ISZERO PUSH2 0x258 JUMPI PUSH1 0x0 DUP1 REVERT JUMPDEST POP PUSH2 0x273 PUSH1 0x4 DUP1 CALLDATASIZE SUB DUP2 ADD SWAP1 PUSH2 0x26E SWAP2 SWAP1 PUSH2 0x20E8 JUMP JUMPDEST PUSH2 0x73B JUMP JUMPDEST STOP JUMPDEST DUP2 DUP1 ISZERO PUSH2 0x281 JUMPI PUSH1 0x0 DUP1 REVERT JUMPDEST POP PUSH2 0x29C PUSH1 0x4 DUP1 CALLDATASIZE SUB DUP2 ADD SWAP1 PUSH2 0x297 SWAP2 SWAP1 PUSH2 0x218F JUMP JUMPDEST PUSH2 0x785 JUMP JUMPDEST STOP JUMPDEST PUSH2 0x2A6 PUSH2 0x925 JUMP JUMPDEST PUSH1 0x40 MLOAD PUSH2 0x2B3 SWAP2 SWAP1 PUSH2 0x21F1 JUMP JUMPDEST PUSH1 0x40 MLOAD DUP1 SWAP2 SUB SWAP1 RETURN JUMPDEST DUP2 DUP1 ISZERO PUSH2 0x2C8 JUMPI PUSH1 0x0 DUP1 REVERT JUMPDEST POP PUSH2 0x2E3 PUSH1 0x4 DUP1 CALLDATASIZE SUB DUP2 ADD SWAP1 PUSH2 0x2DE SWAP2 SWAP1 PUSH2 0x220C JUMP JUMPDEST PUSH2 0x949 JUMP JUMPDEST STOP JUMPDEST DUP2 DUP1 ISZERO PUSH2 0x2F1 JUMPI PUSH1 0x0 DUP1 REVERT JUMPDEST POP PUSH2 0x30C PUSH1 0x4 DUP1 CALLDATASIZE SUB DUP2 ADD SWAP1 PUSH2 0x307 SWAP2 SWAP1 PUSH2 0x220C JUMP JUMPDEST PUSH2 0x9D7 JUMP JUMPDEST PUSH1 0x40 MLOAD PUSH2 0x319 SWAP2 SWAP1 PUSH2 0x21F1 JUMP JUMPDEST PUSH1 0x40 MLOAD DUP1 SWAP2 SUB SWAP1 RETURN JUMPDEST PUSH2 0x33C PUSH1 0x4 DUP1 CALLDATASIZE SUB DUP2 ADD SWAP1 PUSH2 0x337 SWAP2 SWAP1 PUSH2 0x224C JUMP JUMPDEST PUSH2 0xC5A JUMP JUMPDEST PUSH1 0x40 MLOAD PUSH2 0x349 SWAP2 SWAP1 PUSH2 0x21F1 JUMP JUMPDEST PUSH1 0x40 MLOAD DUP1 SWAP2 SUB SWAP1 RETURN JUMPDEST PUSH2 0x35A PUSH2 0x12CD JUMP JUMPDEST PUSH1 0x40 MLOAD PUSH2 0x367 SWAP2 SWAP1 PUSH2 0x21F1 JUMP JUMPDEST PUSH1 0x40 MLOAD DUP1 SWAP2 SUB SWAP1 RETURN JUMPDEST PUSH2 0x378 PUSH2 0x12F1 JUMP JUMPDEST PUSH1 0x40 MLOAD PUSH2 0x385 SWAP2 SWAP1 PUSH2 0x21F1 JUMP JUMPDEST PUSH1 0x40 MLOAD DUP1 SWAP2 SUB SWAP1 RETURN JUMPDEST PUSH2 0x396 PUSH2 0x1315 JUMP JUMPDEST PUSH1 0x40 MLOAD PUSH2 0x3A3 SWAP2 SWAP1 PUSH2 0x21F1 JUMP JUMPDEST PUSH1 0x40 MLOAD DUP1 SWAP2 SUB SWAP1 RETURN JUMPDEST PUSH2 0x3B4 PUSH2 0x1339 JUMP JUMPDEST PUSH1 0x40 MLOAD PUSH2 0x3C1 SWAP2 SWAP1 PUSH2 0x21F1 JUMP JUMPDEST PUSH1 0x40 MLOAD DUP1 SWAP2 SUB SWAP1 RETURN JUMPDEST PUSH2 0x3D2 PUSH2 0x135D JUMP JUMPDEST PUSH1 0x40 MLOAD PUSH2 0x3DF SWAP2 SWAP1 PUSH2 0x21F1 JUMP JUMPDEST PUSH1 0x40 MLOAD DUP1 SWAP2 SUB SWAP1 RETURN JUMPDEST PUSH2 0x3F0 PUSH2 0x1381 JUMP JUMPDEST PUSH1 0x40 MLOAD PUSH2 0x3FD SWAP2 SWAP1 PUSH2 0x21F1 JUMP JUMPDEST PUSH1 0x40 MLOAD DUP1 SWAP2 SUB SWAP1 RETURN JUMPDEST PUSH2 0x40E PUSH2 0x13A5 JUMP JUMPDEST PUSH1 0x40 MLOAD PUSH2 0x41B SWAP2 SWAP1 PUSH2 0x21F1 JUMP JUMPDEST PUSH1 0x40 MLOAD DUP1 SWAP2 SUB SWAP1 RETURN JUMPDEST PUSH2 0x42C PUSH2 0x13C9 JUMP JUMPDEST PUSH1 0x40 MLOAD PUSH2 0x439 SWAP2 SWAP1 PUSH2 0x21F1 JUMP JUMPDEST PUSH1 0x40 MLOAD DUP1 SWAP2 SUB SWAP1 RETURN JUMPDEST PUSH2 0x44A PUSH2 0x13ED JUMP JUMPDEST PUSH1 0x40 MLOAD PUSH2 0x457 SWAP2 SWAP1 PUSH2 0x21F1 JUMP JUMPDEST PUSH1 0x40 MLOAD DUP1 SWAP2 SUB SWAP1 RETURN JUMPDEST PUSH2 0x468 PUSH2 0x1411 JUMP JUMPDEST PUSH1 0x40 MLOAD PUSH2 0x475 SWAP2 SWAP1 PUSH2 0x21F1 JUMP JUMPDEST PUSH1 0x40 MLOAD DUP1 SWAP2 SUB SWAP1 RETURN JUMPDEST PUSH2 0x486 PUSH2 0x1435 JUMP JUMPDEST PUSH1 0x40 MLOAD PUSH2 0x493 SWAP2 SWAP1 PUSH2 0x21F1 JUMP JUMPDEST PUSH1 0x40 MLOAD DUP1 SWAP2 SUB SWAP1 RETURN JUMPDEST PUSH2 0x4A4 PUSH2 0x1459 JUMP JUMPDEST PUSH1 0x40 MLOAD PUSH2 0x4B1 SWAP2 SWAP1 PUSH2 0x21F1 JUMP JUMPDEST PUSH1 0x40 MLOAD DUP1 SWAP2 SUB SWAP1 RETURN JUMPDEST PUSH2 0x4C2 PUSH2 0x147D JUMP JUMPDEST PUSH1 0x40 MLOAD PUSH2 0x4CF SWAP2 SWAP1 PUSH2 0x21F1 JUMP JUMPDEST PUSH1 0x40 MLOAD DUP1 SWAP2 SUB SWAP1 RETURN JUMPDEST PUSH2 0x4E0 PUSH2 0x14A1 JUMP JUMPDEST PUSH1 0x40 MLOAD PUSH2 0x4ED SWAP2 SWAP1 PUSH2 0x21F1 JUMP JUMPDEST PUSH1 0x40 MLOAD DUP1 SWAP2 SUB SWAP1 RETURN JUMPDEST PUSH2 0x4FE PUSH2 0x14A6 JUMP JUMPDEST PUSH1 0x40 MLOAD PUSH2 0x50B SWAP2 SWAP1 PUSH2 0x21F1 JUMP JUMPDEST PUSH1 0x40 MLOAD DUP1 SWAP2 SUB SWAP1 RETURN JUMPDEST PUSH2 0x51C PUSH2 0x14CA JUMP JUMPDEST PUSH1 0x40 MLOAD PUSH2 0x529 SWAP2 SWAP1 PUSH2 0x21F1 JUMP JUMPDEST PUSH1 0x40 MLOAD DUP1 SWAP2 SUB SWAP1 RETURN JUMPDEST PUSH2 0x53A PUSH2 0x14EE JUMP JUMPDEST PUSH1 0x40 MLOAD PUSH2 0x547 SWAP2 SWAP1 PUSH2 0x21F1 JUMP JUMPDEST PUSH1 0x40 MLOAD DUP1 SWAP2 SUB SWAP1 RETURN JUMPDEST PUSH2 0x558 PUSH2 0x1512 JUMP JUMPDEST PUSH1 0x40 MLOAD PUSH2 0x565 SWAP2 SWAP1 PUSH2 0x21F1 JUMP JUMPDEST PUSH1 0x40 MLOAD DUP1 SWAP2 SUB SWAP1 RETURN JUMPDEST PUSH2 0x576 PUSH2 0x1536 JUMP JUMPDEST PUSH1 0x40 MLOAD PUSH2 0x583 SWAP2 SWAP1 PUSH2 0x21F1 JUMP JUMPDEST PUSH1 0x40 MLOAD DUP1 SWAP2 SUB SWAP1 RETURN JUMPDEST PUSH2 0x594 PUSH2 0x155A JUMP JUMPDEST PUSH1 0x40 MLOAD PUSH2 0x5A1 SWAP2 SWAP1 PUSH2 0x21F1 JUMP JUMPDEST PUSH1 0x40 MLOAD DUP1 SWAP2 SUB SWAP1 RETURN JUMPDEST PUSH2 0x5B2 PUSH2 0x157E JUMP JUMPDEST PUSH1 0x40 MLOAD PUSH2 0x5BF SWAP2 SWAP1 PUSH2 0x21F1 JUMP JUMPDEST PUSH1 0x40 MLOAD DUP1 SWAP2 SUB SWAP1 RETURN JUMPDEST DUP2 DUP1 ISZERO PUSH2 0x5D4 JUMPI PUSH1 0x0 DUP1 REVERT JUMPDEST POP PUSH2 0x5EF PUSH1 0x4 DUP1 CALLDATASIZE SUB DUP2 ADD SWAP1 PUSH2 0x5EA SWAP2 SWAP1 PUSH2 0x2279 JUMP JUMPDEST PUSH2 0x15A2 JUMP JUMPDEST STOP JUMPDEST PUSH2 0x5F9 PUSH2 0x1A06 JUMP JUMPDEST PUSH1 0x40 MLOAD PUSH2 0x606 SWAP2 SWAP1 PUSH2 0x21F1 JUMP JUMPDEST PUSH1 0x40 MLOAD DUP1 SWAP2 SUB SWAP1 RETURN JUMPDEST PUSH2 0x617 PUSH2 0x1A2A JUMP JUMPDEST PUSH1 0x40 MLOAD PUSH2 0x624 SWAP2 SWAP1 PUSH2 0x21F1 JUMP JUMPDEST PUSH1 0x40 MLOAD DUP1 SWAP2 SUB SWAP1 RETURN JUMPDEST PUSH2 0x635 PUSH2 0x1A4E JUMP JUMPDEST PUSH1 0x40 MLOAD PUSH2 0x642 SWAP2 SWAP1 PUSH2 0x21F1 JUMP JUMPDEST PUSH1 0x40 MLOAD DUP1 SWAP2 SUB SWAP1 RETURN JUMPDEST PUSH2 0x653 PUSH2 0x1A72 JUMP JUMPDEST PUSH1 0x40 MLOAD PUSH2 0x660 SWAP2 SWAP1 PUSH2 0x21F1 JUMP JUMPDEST PUSH1 0x40 MLOAD DUP1 SWAP2 SUB SWAP1 RETURN JUMPDEST PUSH2 0x671 PUSH2 0x1A96 JUMP JUMPDEST PUSH1 0x40 MLOAD PUSH2 0x67E SWAP2 SWAP1 PUSH2 0x21F1 JUMP JUMPDEST PUSH1 0x40 MLOAD DUP1 SWAP2 SUB SWAP1 RETURN JUMPDEST PUSH2 0x68F PUSH2 0x1ABA JUMP JUMPDEST PUSH1 0x40 MLOAD PUSH2 0x69C SWAP2 SWAP1 PUSH2 0x21F1 JUMP JUMPDEST PUSH1 0x40 MLOAD DUP1 SWAP2 SUB SWAP1 RETURN JUMPDEST PUSH2 0x6AD PUSH2 0x1ADE JUMP JUMPDEST PUSH1 0x40 MLOAD PUSH2 0x6BA SWAP2 SWAP1 PUSH2 0x21F1 JUMP JUMPDEST PUSH1 0x40 MLOAD DUP1 SWAP2 SUB SWAP1 RETURN JUMPDEST PUSH2 0x6CB PUSH2 0x1B02 JUMP JUMPDEST PUSH1 0x40 MLOAD PUSH2 0x6D8 SWAP2 SWAP1 PUSH2 0x21F1 JUMP JUMPDEST PUSH1 0x40 MLOAD DUP1 SWAP2 SUB SWAP1 RETURN JUMPDEST PUSH2 0x6E9 PUSH2 0x1B26 JUMP JUMPDEST PUSH1 0x40 MLOAD PUSH2 0x6F6 SWAP2 SWAP1 PUSH2 0x21F1 JUMP JUMPDEST PUSH1 0x40 MLOAD DUP1 SWAP2 SUB SWAP1 RETURN JUMPDEST PUSH2 0x707 PUSH2 0x1B4A JUMP JUMPDEST PUSH1 0x40 MLOAD PUSH2 0x714 SWAP2 SWAP1 PUSH2 0x21F1 JUMP JUMPDEST PUSH1 0x40 MLOAD DUP1 SWAP2 SUB SWAP1 RETURN JUMPDEST PUSH2 0x725 PUSH2 0x1B6E JUMP JUMPDEST PUSH1 0x40 MLOAD PUSH2 0x732 SWAP2 SWAP1 PUSH2 0x21F1 JUMP JUMPDEST PUSH1 0x40 MLOAD DUP1 SWAP2 SUB SWAP1 RETURN JUMPDEST PUSH2 0x77D DUP7 DUP7 DUP9 PUSH1 0x5 ADD PUSH1 0x0 SWAP1 SLOAD SWAP1 PUSH2 0x100 EXP SWAP1 DIV PUSH1 0xFF AND PUSH2 0x771 JUMPI DUP9 PUSH1 0x3 ADD PUSH1 0x0 DUP1 DUP2 MSTORE PUSH1 0x20 ADD SWAP1 DUP2 MSTORE PUSH1 0x20 ADD PUSH1 0x0 KECCAK256 SLOAD PUSH2 0x774 JUMP JUMPDEST PUSH1 0x0 JUMPDEST DUP8 DUP8 DUP8 DUP8 PUSH2 0x15A2 JUMP JUMPDEST POP POP POP POP POP POP JUMP JUMPDEST PUSH32 0x30644E72E131A029B85045B68181585D2833E84879B9709143E1F593F0000001 DUP2 LT PUSH2 0x7E7 JUMPI PUSH1 0x40 MLOAD PUSH32 0x8C379A000000000000000000000000000000000000000000000000000000000 DUP2 MSTORE PUSH1 0x4 ADD PUSH2 0x7DE SWAP1 PUSH2 0x23B8 JUMP JUMPDEST PUSH1 0x40 MLOAD DUP1 SWAP2 SUB SWAP1 REVERT JUMPDEST PUSH1 0x0 DUP3 GT DUP1 ISZERO PUSH2 0x7FB JUMPI POP PUSH1 0x20 PUSH1 0xFF AND DUP3 GT ISZERO JUMPDEST PUSH2 0x83A JUMPI PUSH1 0x40 MLOAD PUSH32 0x8C379A000000000000000000000000000000000000000000000000000000000 DUP2 MSTORE PUSH1 0x4 ADD PUSH2 0x831 SWAP1 PUSH2 0x244A JUMP JUMPDEST PUSH1 0x40 MLOAD DUP1 SWAP2 SUB SWAP1 REVERT JUMPDEST DUP2 DUP4 PUSH1 0x0 ADD DUP2 SWAP1 SSTORE POP PUSH1 0x0 JUMPDEST DUP3 DUP2 PUSH1 0xFF AND LT ISZERO PUSH2 0x916 JUMPI DUP2 DUP5 PUSH1 0x3 ADD PUSH1 0x0 DUP4 PUSH1 0xFF AND DUP2 MSTORE PUSH1 0x20 ADD SWAP1 DUP2 MSTORE PUSH1 0x20 ADD PUSH1 0x0 KECCAK256 DUP2 SWAP1 SSTORE POP PUSH20 0x0 PUSH4 0x561558FE PUSH1 0x40 MLOAD DUP1 PUSH1 0x40 ADD PUSH1 0x40 MSTORE DUP1 DUP6 DUP2 MSTORE PUSH1 0x20 ADD DUP6 DUP2 MSTORE POP PUSH1 0x40 MLOAD DUP3 PUSH4 0xFFFFFFFF AND PUSH1 0xE0 SHL DUP2 MSTORE PUSH1 0x4 ADD PUSH2 0x8B9 SWAP2 SWAP1 PUSH2 0x2515 JUMP JUMPDEST PUSH1 0x20 PUSH1 0x40 MLOAD DUP1 DUP4 SUB DUP2 DUP7 DUP1 EXTCODESIZE ISZERO DUP1 ISZERO PUSH2 0x8D1 JUMPI PUSH1 0x0 DUP1 REVERT JUMPDEST POP GAS DELEGATECALL ISZERO DUP1 ISZERO PUSH2 0x8E5 JUMPI RETURNDATASIZE PUSH1 0x0 DUP1 RETURNDATACOPY RETURNDATASIZE PUSH1 0x0 REVERT JUMPDEST POP POP POP POP PUSH1 0x40 MLOAD RETURNDATASIZE PUSH1 0x1F NOT PUSH1 0x1F DUP3 ADD AND DUP3 ADD DUP1 PUSH1 0x40 MSTORE POP DUP2 ADD SWAP1 PUSH2 0x909 SWAP2 SWAP1 PUSH2 0x2545 JUMP JUMPDEST SWAP2 POP DUP1 PUSH1 0x1 ADD SWAP1 POP PUSH2 0x846 JUMP JUMPDEST POP DUP1 DUP4 PUSH1 0x1 ADD DUP2 SWAP1 SSTORE POP POP POP POP JUMP JUMPDEST PUSH32 0x120C58F143D491E95902F7F5277778A2E0AD5168F6ADD75669932630CE611518 DUP2 JUMP JUMPDEST PUSH1 0x0 DUP2 GT DUP1 ISZERO PUSH2 0x95D JUMPI POP PUSH1 0x20 PUSH1 0xFF AND DUP2 GT ISZERO JUMPDEST PUSH2 0x99C JUMPI PUSH1 0x40 MLOAD PUSH32 0x8C379A000000000000000000000000000000000000000000000000000000000 DUP2 MSTORE PUSH1 0x4 ADD PUSH2 0x993 SWAP1 PUSH2 0x244A JUMP JUMPDEST PUSH1 0x40 MLOAD DUP1 SWAP2 SUB SWAP1 REVERT JUMPDEST DUP1 DUP3 PUSH1 0x0 ADD DUP2 SWAP1 SSTORE POP PUSH1 0x1 DUP3 PUSH1 0x5 ADD PUSH1 0x0 PUSH2 0x100 EXP DUP2 SLOAD DUP2 PUSH1 0xFF MUL NOT AND SWAP1 DUP4 ISZERO ISZERO MUL OR SWAP1 SSTORE POP PUSH2 0x9CB DUP2 PUSH2 0xC5A JUMP JUMPDEST DUP3 PUSH1 0x1 ADD DUP2 SWAP1 SSTORE POP POP POP JUMP JUMPDEST PUSH1 0x0 DUP1 DUP4 PUSH1 0x0 ADD SLOAD SWAP1 POP PUSH32 0x30644E72E131A029B85045B68181585D2833E84879B9709143E1F593F0000001 DUP4 LT PUSH2 0xA43 JUMPI PUSH1 0x40 MLOAD PUSH32 0x8C379A000000000000000000000000000000000000000000000000000000000 DUP2 MSTORE PUSH1 0x4 ADD PUSH2 0xA3A SWAP1 PUSH2 0x23B8 JUMP JUMPDEST PUSH1 0x40 MLOAD DUP1 SWAP2 SUB SWAP1 REVERT JUMPDEST DUP1 PUSH1 0x2 PUSH2 0xA50 SWAP2 SWAP1 PUSH2 0x26D4 JUMP JUMPDEST DUP5 PUSH1 0x2 ADD SLOAD LT PUSH2 0xA95 JUMPI PUSH1 0x40 MLOAD PUSH32 0x8C379A000000000000000000000000000000000000000000000000000000000 DUP2 MSTORE PUSH1 0x4 ADD PUSH2 0xA8C SWAP1 PUSH2 0x2791 JUMP JUMPDEST PUSH1 0x40 MLOAD DUP1 SWAP2 SUB SWAP1 REVERT JUMPDEST PUSH1 0x0 DUP5 PUSH1 0x2 ADD SLOAD SWAP1 POP PUSH1 0x0 DUP5 SWAP1 POP PUSH1 0x0 DUP7 PUSH1 0x5 ADD PUSH1 0x0 SWAP1 SLOAD SWAP1 PUSH2 0x100 EXP SWAP1 DIV PUSH1 0xFF AND SWAP1 POP PUSH1 0x0 JUMPDEST DUP5 DUP2 PUSH1 0xFF AND LT ISZERO PUSH2 0xC27 JUMPI PUSH1 0x0 PUSH1 0x1 DUP6 AND EQ ISZERO PUSH2 0xB43 JUMPI PUSH1 0x40 MLOAD DUP1 PUSH1 0x40 ADD PUSH1 0x40 MSTORE DUP1 DUP5 DUP2 MSTORE PUSH1 0x20 ADD DUP4 PUSH2 0xB07 JUMPI DUP10 PUSH1 0x3 ADD PUSH1 0x0 DUP5 PUSH1 0xFF AND DUP2 MSTORE PUSH1 0x20 ADD SWAP1 DUP2 MSTORE PUSH1 0x20 ADD PUSH1 0x0 KECCAK256 SLOAD PUSH2 0xB14 JUMP JUMPDEST PUSH2 0xB13 DUP4 PUSH1 0xFF AND PUSH2 0xC5A JUMP JUMPDEST JUMPDEST DUP2 MSTORE POP DUP9 PUSH1 0x4 ADD PUSH1 0x0 DUP4 PUSH1 0xFF AND DUP2 MSTORE PUSH1 0x20 ADD SWAP1 DUP2 MSTORE PUSH1 0x20 ADD PUSH1 0x0 KECCAK256 SWAP1 PUSH1 0x2 PUSH2 0xB3D SWAP3 SWAP2 SWAP1 PUSH2 0x1F5A JUMP JUMPDEST POP PUSH2 0xB75 JUMP JUMPDEST DUP3 DUP9 PUSH1 0x4 ADD PUSH1 0x0 DUP4 PUSH1 0xFF AND DUP2 MSTORE PUSH1 0x20 ADD SWAP1 DUP2 MSTORE PUSH1 0x20 ADD PUSH1 0x0 KECCAK256 PUSH1 0x1 PUSH1 0x2 DUP2 LT PUSH2 0xB6F JUMPI PUSH2 0xB6E PUSH2 0x27B1 JUMP JUMPDEST JUMPDEST ADD DUP2 SWAP1 SSTORE POP JUMPDEST PUSH20 0x0 PUSH4 0x561558FE DUP10 PUSH1 0x4 ADD PUSH1 0x0 DUP5 PUSH1 0xFF AND DUP2 MSTORE PUSH1 0x20 ADD SWAP1 DUP2 MSTORE PUSH1 0x20 ADD PUSH1 0x0 KECCAK256 PUSH1 0x40 MLOAD DUP3 PUSH4 0xFFFFFFFF AND PUSH1 0xE0 SHL DUP2 MSTORE PUSH1 0x4 ADD PUSH2 0xBC3 SWAP2 SWAP1 PUSH2 0x28A4 JUMP JUMPDEST PUSH1 0x20 PUSH1 0x40 MLOAD DUP1 DUP4 SUB DUP2 DUP7 DUP1 EXTCODESIZE ISZERO DUP1 ISZERO PUSH2 0xBDB JUMPI PUSH1 0x0 DUP1 REVERT JUMPDEST POP GAS DELEGATECALL ISZERO DUP1 ISZERO PUSH2 0xBEF JUMPI RETURNDATASIZE PUSH1 0x0 DUP1 RETURNDATACOPY RETURNDATASIZE PUSH1 0x0 REVERT JUMPDEST POP POP POP POP PUSH1 0x40 MLOAD RETURNDATASIZE PUSH1 0x1F NOT PUSH1 0x1F DUP3 ADD AND DUP3 ADD DUP1 PUSH1 0x40 MSTORE POP DUP2 ADD SWAP1 PUSH2 0xC13 SWAP2 SWAP1 PUSH2 0x2545 JUMP JUMPDEST SWAP3 POP PUSH1 0x1 DUP5 SWAP1 SHR SWAP4 POP DUP1 PUSH1 0x1 ADD SWAP1 POP PUSH2 0xABC JUMP JUMPDEST POP DUP2 DUP8 PUSH1 0x1 ADD DUP2 SWAP1 SSTORE POP PUSH1 0x1 DUP8 PUSH1 0x2 ADD PUSH1 0x0 DUP3 DUP3 SLOAD PUSH2 0xC46 SWAP2 SWAP1 PUSH2 0x28BF JUMP JUMPDEST SWAP3 POP POP DUP2 SWAP1 SSTORE POP DUP2 SWAP5 POP POP POP POP POP SWAP3 SWAP2 POP POP JUMP JUMPDEST PUSH1 0x0 DUP1 DUP3 EQ ISZERO PUSH2 0xC6D JUMPI PUSH1 0x0 SWAP1 POP PUSH2 0x12C8 JUMP JUMPDEST PUSH1 0x1 DUP3 EQ ISZERO PUSH2 0xC9E JUMPI PUSH32 0x2098F5FB9E239EAB3CEAC3F27B81E481DC3124D55FFED523A839EE8446B64864 SWAP1 POP PUSH2 0x12C8 JUMP JUMPDEST PUSH1 0x2 DUP3 EQ ISZERO PUSH2 0xCCF JUMPI PUSH32 0x1069673DCDB12263DF301A6FF584A7EC261A44CB9DC68DF067A4774460B1F1E1 SWAP1 POP PUSH2 0x12C8 JUMP JUMPDEST PUSH1 0x3 DUP3 EQ ISZERO PUSH2 0xD00 JUMPI PUSH32 0x18F43331537EE2AF2E3D758D50F72106467C6EEA50371DD528D57EB2B856D238 SWAP1 POP PUSH2 0x12C8 JUMP JUMPDEST PUSH1 0x4 DUP3 EQ ISZERO PUSH2 0xD31 JUMPI PUSH32 0x7F9D837CB17B0D36320FFE93BA52345F1B728571A568265CAAC97559DBC952A SWAP1 POP PUSH2 0x12C8 JUMP JUMPDEST PUSH1 0x5 DUP3 EQ ISZERO PUSH2 0xD62 JUMPI PUSH32 0x2B94CF5E8746B3F5C9631F4C5DF32907A699C58C94B2AD4D7B5CEC1639183F55 SWAP1 POP PUSH2 0x12C8 JUMP JUMPDEST PUSH1 0x6 DUP3 EQ ISZERO PUSH2 0xD93 JUMPI PUSH32 0x2DEE93C5A666459646EA7D22CCA9E1BCFED71E6951B953611D11DDA32EA09D78 SWAP1 POP PUSH2 0x12C8 JUMP JUMPDEST PUSH1 0x7 DUP3 EQ ISZERO PUSH2 0xDC4 JUMPI PUSH32 0x78295E5A22B84E982CF601EB639597B8B0515A88CB5AC7FA8A4AABE3C87349D SWAP1 POP PUSH2 0x12C8 JUMP JUMPDEST PUSH1 0x8 DUP3 EQ ISZERO PUSH2 0xDF5 JUMPI PUSH32 0x2FA5E5F18F6027A6501BEC864564472A616B2E274A41211A444CBE3A99F3CC61 SWAP1 POP PUSH2 0x12C8 JUMP JUMPDEST PUSH1 0x9 DUP3 EQ ISZERO PUSH2 0xE26 JUMPI PUSH32 0xE884376D0D8FD21ECB780389E941F66E45E7ACCE3E228AB3E2156A614FCD747 SWAP1 POP PUSH2 0x12C8 JUMP JUMPDEST PUSH1 0xA DUP3 EQ ISZERO PUSH2 0xE57 JUMPI PUSH32 0x1B7201DA72494F1E28717AD1A52EB469F95892F957713533DE6175E5DA190AF2 SWAP1 POP PUSH2 0x12C8 JUMP JUMPDEST PUSH1 0xB DUP3 EQ ISZERO PUSH2 0xE88 JUMPI PUSH32 0x1F8D8822725E36385200C0B201249819A6E6E1E4650808B5BEBC6BFACE7D7636 SWAP1 POP PUSH2 0x12C8 JUMP JUMPDEST PUSH1 0xC DUP3 EQ ISZERO PUSH2 0xEB9 JUMPI PUSH32 0x2C5D82F66C914BAFB9701589BA8CFCFB6162B0A12ACF88A8D0879A0471B5F85A SWAP1 POP PUSH2 0x12C8 JUMP JUMPDEST PUSH1 0xD DUP3 EQ ISZERO PUSH2 0xEEA JUMPI PUSH32 0x14C54148A0940BB820957F5ADF3FA1134EF5C4AAA113F4646458F270E0BFBFD0 SWAP1 POP PUSH2 0x12C8 JUMP JUMPDEST PUSH1 0xE DUP3 EQ ISZERO PUSH2 0xF1B JUMPI PUSH32 0x190D33B12F986F961E10C0EE44D8B9AF11BE25588CAD89D416118E4BF4EBE80C SWAP1 POP PUSH2 0x12C8 JUMP JUMPDEST PUSH1 0xF DUP3 EQ ISZERO PUSH2 0xF4C JUMPI PUSH32 0x22F98AA9CE704152AC17354914AD73ED1167AE6596AF510AA5B3649325E06C92 SWAP1 POP PUSH2 0x12C8 JUMP JUMPDEST PUSH1 0x10 DUP3 EQ ISZERO PUSH2 0xF7D JUMPI PUSH32 0x2A7C7C9B6CE5880B9F6F228D72BF6A575A526F29C66ECCEEF8B753D38BBA7323 SWAP1 POP PUSH2 0x12C8 JUMP JUMPDEST PUSH1 0x11 DUP3 EQ ISZERO PUSH2 0xFAE JUMPI PUSH32 0x2E8186E558698EC1C67AF9C14D463FFC470043C9C2988B954D75DD643F36B992 SWAP1 POP PUSH2 0x12C8 JUMP JUMPDEST PUSH1 0x12 DUP3 EQ ISZERO PUSH2 0xFDF JUMPI PUSH32 0xF57C5571E9A4EAB49E2C8CF050DAE948AEF6EAD647392273546249D1C1FF10F SWAP1 POP PUSH2 0x12C8 JUMP JUMPDEST PUSH1 0x13 DUP3 EQ ISZERO PUSH2 0x1010 JUMPI PUSH32 0x1830EE67B5FB554AD5F63D4388800E1CFE78E310697D46E43C9CE36134F72CCA SWAP1 POP PUSH2 0x12C8 JUMP JUMPDEST PUSH1 0x14 DUP3 EQ ISZERO PUSH2 0x1041 JUMPI PUSH32 0x2134E76AC5D21AAB186C2BE1DD8F84EE880A1E46EAF712F9D371B6DF22191F3E SWAP1 POP PUSH2 0x12C8 JUMP JUMPDEST PUSH1 0x15 DUP3 EQ ISZERO PUSH2 0x1072 JUMPI PUSH32 0x19DF90EC844EBC4FFEEBD866F33859B0C051D8C958EE3AA88F8F8DF3DB91A5B1 SWAP1 POP PUSH2 0x12C8 JUMP JUMPDEST PUSH1 0x16 DUP3 EQ ISZERO PUSH2 0x10A3 JUMPI PUSH32 0x18CCA2A66B5C0787981E69AEFD84852D74AF0E93EF4912B4648C05F722EFE52B SWAP1 POP PUSH2 0x12C8 JUMP JUMPDEST PUSH1 0x17 DUP3 EQ ISZERO PUSH2 0x10D4 JUMPI PUSH32 0x2388909415230D1B4D1304D2D54F473A628338F2EFAD83FADF05644549D2538D SWAP1 POP PUSH2 0x12C8 JUMP JUMPDEST PUSH1 0x18 DUP3 EQ ISZERO PUSH2 0x1105 JUMPI PUSH32 0x27171FB4A97B6CC0E9E8F543B5294DE866A2AF2C9C8D0B1D96E673E4529ED540 SWAP1 POP PUSH2 0x12C8 JUMP JUMPDEST PUSH1 0x19 DUP3 EQ ISZERO PUSH2 0x1136 JUMPI PUSH32 0x2FF6650540F629FD5711A0BC74FC0D28DCB230B9392583E5F8D59696DDE6AE21 SWAP1 POP PUSH2 0x12C8 JUMP JUMPDEST PUSH1 0x1A DUP3 EQ ISZERO PUSH2 0x1167 JUMPI PUSH32 0x120C58F143D491E95902F7F5277778A2E0AD5168F6ADD75669932630CE611518 SWAP1 POP PUSH2 0x12C8 JUMP JUMPDEST PUSH1 0x1B DUP3 EQ ISZERO PUSH2 0x1198 JUMPI PUSH32 0x1F21FEB70D3F21B07BF853D5E5DB03071EC495A0A565A21DA2D665D279483795 SWAP1 POP PUSH2 0x12C8 JUMP JUMPDEST PUSH1 0x1C DUP3 EQ ISZERO PUSH2 0x11C9 JUMPI PUSH32 0x24BE905FA71335E14C638CC0F66A8623A826E768068A9E968BB1A1DDE18A72D2 SWAP1 POP PUSH2 0x12C8 JUMP JUMPDEST PUSH1 0x1D DUP3 EQ ISZERO PUSH2 0x11FA JUMPI PUSH32 0xF8666B62ED17491C50CEADEAD57D4CD597EF3821D65C328744C74E553DAC26D SWAP1 POP PUSH2 0x12C8 JUMP JUMPDEST PUSH1 0x1E DUP3 EQ ISZERO PUSH2 0x122B JUMPI PUSH32 0x918D46BF52D98B034413F4A1A1C41594E7A7A3F6AE08CB43D1A2A230E1959EF SWAP1 POP PUSH2 0x12C8 JUMP JUMPDEST PUSH1 0x1F DUP3 EQ ISZERO PUSH2 0x125C JUMPI PUSH32 0x1BBEB01B4C479ECDE76917645E404DFA2E26F90D0AFC5A65128513AD375C5FF2 SWAP1 POP PUSH2 0x12C8 JUMP JUMPDEST PUSH1 0x20 DUP3 EQ ISZERO PUSH2 0x128D JUMPI PUSH32 0x2F68A1C58E257E42A17A6C61DFF5551ED560B9922AB119D5AC8E184C9734EAD9 SWAP1 POP PUSH2 0x12C8 JUMP JUMPDEST PUSH1 0x40 MLOAD PUSH32 0x8C379A000000000000000000000000000000000000000000000000000000000 DUP2 MSTORE PUSH1 0x4 ADD PUSH2 0x12BF SWAP1 PUSH2 0x2987 JUMP JUMPDEST PUSH1 0x40 MLOAD DUP1 SWAP2 SUB SWAP1 REVERT JUMPDEST SWAP2 SWAP1 POP JUMP JUMPDEST PUSH32 0x2388909415230D1B4D1304D2D54F473A628338F2EFAD83FADF05644549D2538D DUP2 JUMP JUMPDEST PUSH32 0x18CCA2A66B5C0787981E69AEFD84852D74AF0E93EF4912B4648C05F722EFE52B DUP2 JUMP JUMPDEST PUSH32 0x2E8186E558698EC1C67AF9C14D463FFC470043C9C2988B954D75DD643F36B992 DUP2 JUMP JUMPDEST PUSH32 0x2FF6650540F629FD5711A0BC74FC0D28DCB230B9392583E5F8D59696DDE6AE21 DUP2 JUMP JUMPDEST PUSH32 0x24BE905FA71335E14C638CC0F66A8623A826E768068A9E968BB1A1DDE18A72D2 DUP2 JUMP JUMPDEST PUSH32 0x1069673DCDB12263DF301A6FF584A7EC261A44CB9DC68DF067A4774460B1F1E1 DUP2 JUMP JUMPDEST PUSH32 0x14C54148A0940BB820957F5ADF3FA1134EF5C4AAA113F4646458F270E0BFBFD0 DUP2 JUMP JUMPDEST PUSH32 0xF57C5571E9A4EAB49E2C8CF050DAE948AEF6EAD647392273546249D1C1FF10F DUP2 JUMP JUMPDEST PUSH32 0x2DEE93C5A666459646EA7D22CCA9E1BCFED71E6951B953611D11DDA32EA09D78 DUP2 JUMP JUMPDEST PUSH32 0x2FA5E5F18F6027A6501BEC864564472A616B2E274A41211A444CBE3A99F3CC61 DUP2 JUMP JUMPDEST PUSH32 0x27171FB4A97B6CC0E9E8F543B5294DE866A2AF2C9C8D0B1D96E673E4529ED540 DUP2 JUMP JUMPDEST PUSH32 0x78295E5A22B84E982CF601EB639597B8B0515A88CB5AC7FA8A4AABE3C87349D DUP2 JUMP JUMPDEST PUSH32 0x1830EE67B5FB554AD5F63D4388800E1CFE78E310697D46E43C9CE36134F72CCA DUP2 JUMP JUMPDEST PUSH1 0x0 DUP2 JUMP JUMPDEST PUSH32 0x190D33B12F986F961E10C0EE44D8B9AF11BE25588CAD89D416118E4BF4EBE80C DUP2 JUMP JUMPDEST PUSH32 0x18F43331537EE2AF2E3D758D50F72106467C6EEA50371DD528D57EB2B856D238 DUP2 JUMP JUMPDEST PUSH32 0x2A7C7C9B6CE5880B9F6F228D72BF6A575A526F29C66ECCEEF8B753D38BBA7323 DUP2 JUMP JUMPDEST PUSH32 0xE884376D0D8FD21ECB780389E941F66E45E7ACCE3E228AB3E2156A614FCD747 DUP2 JUMP JUMPDEST PUSH32 0x2C5D82F66C914BAFB9701589BA8CFCFB6162B0A12ACF88A8D0879A0471B5F85A DUP2 JUMP JUMPDEST PUSH32 0xF8666B62ED17491C50CEADEAD57D4CD597EF3821D65C328744C74E553DAC26D DUP2 JUMP JUMPDEST PUSH32 0x22F98AA9CE704152AC17354914AD73ED1167AE6596AF510AA5B3649325E06C92 DUP2 JUMP JUMPDEST DUP6 DUP6 EQ ISZERO PUSH2 0x15E5 JUMPI PUSH1 0x40 MLOAD PUSH32 0x8C379A000000000000000000000000000000000000000000000000000000000 DUP2 MSTORE PUSH1 0x4 ADD PUSH2 0x15DC SWAP1 PUSH2 0x2A3F JUMP JUMPDEST PUSH1 0x40 MLOAD DUP1 SWAP2 SUB SWAP1 REVERT JUMPDEST PUSH32 0x30644E72E131A029B85045B68181585D2833E84879B9709143E1F593F0000001 DUP6 LT PUSH2 0x1647 JUMPI PUSH1 0x40 MLOAD PUSH32 0x8C379A000000000000000000000000000000000000000000000000000000000 DUP2 MSTORE PUSH1 0x4 ADD PUSH2 0x163E SWAP1 PUSH2 0x2AD1 JUMP JUMPDEST PUSH1 0x40 MLOAD DUP1 SWAP2 SUB SWAP1 REVERT JUMPDEST PUSH2 0x1655 DUP8 DUP8 DUP7 DUP7 DUP7 DUP7 PUSH2 0x1B92 JUMP JUMPDEST PUSH2 0x1694 JUMPI PUSH1 0x40 MLOAD PUSH32 0x8C379A000000000000000000000000000000000000000000000000000000000 DUP2 MSTORE PUSH1 0x4 ADD PUSH2 0x168B SWAP1 PUSH2 0x2B63 JUMP JUMPDEST PUSH1 0x40 MLOAD DUP1 SWAP2 SUB SWAP1 REVERT JUMPDEST PUSH1 0x0 DUP8 PUSH1 0x0 ADD SLOAD SWAP1 POP PUSH1 0x0 DUP7 SWAP1 POP PUSH1 0x0 DUP1 PUSH1 0x0 SWAP1 POP JUMPDEST DUP4 DUP2 PUSH1 0xFF AND LT ISZERO PUSH2 0x19AA JUMPI DUP1 PUSH1 0xFF AND DUP7 DUP7 DUP4 PUSH1 0xFF AND DUP2 DUP2 LT PUSH2 0x16CF JUMPI PUSH2 0x16CE PUSH2 0x27B1 JUMP JUMPDEST JUMPDEST SWAP1 POP PUSH1 0x20 MUL ADD PUSH1 0x20 DUP2 ADD SWAP1 PUSH2 0x16E4 SWAP2 SWAP1 PUSH2 0x2BBC JUMP JUMPDEST PUSH1 0xFF AND SWAP1 SHL DUP3 OR SWAP2 POP PUSH1 0x0 DUP7 DUP7 DUP4 PUSH1 0xFF AND DUP2 DUP2 LT PUSH2 0x1705 JUMPI PUSH2 0x1704 PUSH2 0x27B1 JUMP JUMPDEST JUMPDEST SWAP1 POP PUSH1 0x20 MUL ADD PUSH1 0x20 DUP2 ADD SWAP1 PUSH2 0x171A SWAP2 SWAP1 PUSH2 0x2BBC JUMP JUMPDEST PUSH1 0xFF AND EQ ISZERO PUSH2 0x1863 JUMPI DUP11 PUSH1 0x4 ADD PUSH1 0x0 DUP3 PUSH1 0xFF AND DUP2 MSTORE PUSH1 0x20 ADD SWAP1 DUP2 MSTORE PUSH1 0x20 ADD PUSH1 0x0 KECCAK256 PUSH1 0x1 PUSH1 0x2 DUP2 LT PUSH2 0x174E JUMPI PUSH2 0x174D PUSH2 0x27B1 JUMP JUMPDEST JUMPDEST ADD SLOAD DUP9 DUP9 DUP4 PUSH1 0xFF AND DUP2 DUP2 LT PUSH2 0x1766 JUMPI PUSH2 0x1765 PUSH2 0x27B1 JUMP JUMPDEST JUMPDEST SWAP1 POP PUSH1 0x20 MUL ADD CALLDATALOAD EQ ISZERO PUSH2 0x17A5 JUMPI DUP3 DUP12 PUSH1 0x4 ADD PUSH1 0x0 DUP4 PUSH1 0xFF AND DUP2 MSTORE PUSH1 0x20 ADD SWAP1 DUP2 MSTORE PUSH1 0x20 ADD PUSH1 0x0 KECCAK256 PUSH1 0x0 PUSH1 0x2 DUP2 LT PUSH2 0x179F JUMPI PUSH2 0x179E PUSH2 0x27B1 JUMP JUMPDEST JUMPDEST ADD DUP2 SWAP1 SSTORE POP JUMPDEST PUSH20 0x0 PUSH4 0x561558FE PUSH1 0x40 MLOAD DUP1 PUSH1 0x40 ADD PUSH1 0x40 MSTORE DUP1 DUP7 DUP2 MSTORE PUSH1 0x20 ADD DUP12 DUP12 DUP7 PUSH1 0xFF AND DUP2 DUP2 LT PUSH2 0x17E6 JUMPI PUSH2 0x17E5 PUSH2 0x27B1 JUMP JUMPDEST JUMPDEST SWAP1 POP PUSH1 0x20 MUL ADD CALLDATALOAD DUP2 MSTORE POP PUSH1 0x40 MLOAD DUP3 PUSH4 0xFFFFFFFF AND PUSH1 0xE0 SHL DUP2 MSTORE PUSH1 0x4 ADD PUSH2 0x180C SWAP2 SWAP1 PUSH2 0x2515 JUMP JUMPDEST PUSH1 0x20 PUSH1 0x40 MLOAD DUP1 DUP4 SUB DUP2 DUP7 DUP1 EXTCODESIZE ISZERO DUP1 ISZERO PUSH2 0x1824 JUMPI PUSH1 0x0 DUP1 REVERT JUMPDEST POP GAS DELEGATECALL ISZERO DUP1 ISZERO PUSH2 0x1838 JUMPI RETURNDATASIZE PUSH1 0x0 DUP1 RETURNDATACOPY RETURNDATASIZE PUSH1 0x0 REVERT JUMPDEST POP POP POP POP PUSH1 0x40 MLOAD RETURNDATASIZE PUSH1 0x1F NOT PUSH1 0x1F DUP3 ADD AND DUP3 ADD DUP1 PUSH1 0x40 MSTORE POP DUP2 ADD SWAP1 PUSH2 0x185C SWAP2 SWAP1 PUSH2 0x2545 JUMP JUMPDEST SWAP3 POP PUSH2 0x199F JUMP JUMPDEST DUP11 PUSH1 0x4 ADD PUSH1 0x0 DUP3 PUSH1 0xFF AND DUP2 MSTORE PUSH1 0x20 ADD SWAP1 DUP2 MSTORE PUSH1 0x20 ADD PUSH1 0x0 KECCAK256 PUSH1 0x0 PUSH1 0x2 DUP2 LT PUSH2 0x188E JUMPI PUSH2 0x188D PUSH2 0x27B1 JUMP JUMPDEST JUMPDEST ADD SLOAD DUP9 DUP9 DUP4 PUSH1 0xFF AND DUP2 DUP2 LT PUSH2 0x18A6 JUMPI PUSH2 0x18A5 PUSH2 0x27B1 JUMP JUMPDEST JUMPDEST SWAP1 POP PUSH1 0x20 MUL ADD CALLDATALOAD EQ ISZERO PUSH2 0x18E5 JUMPI DUP3 DUP12 PUSH1 0x4 ADD PUSH1 0x0 DUP4 PUSH1 0xFF AND DUP2 MSTORE PUSH1 0x20 ADD SWAP1 DUP2 MSTORE PUSH1 0x20 ADD PUSH1 0x0 KECCAK256 PUSH1 0x1 PUSH1 0x2 DUP2 LT PUSH2 0x18DF JUMPI PUSH2 0x18DE PUSH2 0x27B1 JUMP JUMPDEST JUMPDEST ADD DUP2 SWAP1 SSTORE POP JUMPDEST PUSH20 0x0 PUSH4 0x561558FE PUSH1 0x40 MLOAD DUP1 PUSH1 0x40 ADD PUSH1 0x40 MSTORE DUP1 DUP12 DUP12 DUP7 PUSH1 0xFF AND DUP2 DUP2 LT PUSH2 0x1920 JUMPI PUSH2 0x191F PUSH2 0x27B1 JUMP JUMPDEST JUMPDEST SWAP1 POP PUSH1 0x20 MUL ADD CALLDATALOAD DUP2 MSTORE PUSH1 0x20 ADD DUP7 DUP2 MSTORE POP PUSH1 0x40 MLOAD DUP3 PUSH4 0xFFFFFFFF AND PUSH1 0xE0 SHL DUP2 MSTORE PUSH1 0x4 ADD PUSH2 0x194C SWAP2 SWAP1 PUSH2 0x2515 JUMP JUMPDEST PUSH1 0x20 PUSH1 0x40 MLOAD DUP1 DUP4 SUB DUP2 DUP7 DUP1 EXTCODESIZE ISZERO DUP1 ISZERO PUSH2 0x1964 JUMPI PUSH1 0x0 DUP1 REVERT JUMPDEST POP GAS DELEGATECALL ISZERO DUP1 ISZERO PUSH2 0x1978 JUMPI RETURNDATASIZE PUSH1 0x0 DUP1 RETURNDATACOPY RETURNDATASIZE PUSH1 0x0 REVERT JUMPDEST POP POP POP POP PUSH1 0x40 MLOAD RETURNDATASIZE PUSH1 0x1F NOT PUSH1 0x1F DUP3 ADD AND DUP3 ADD DUP1 PUSH1 0x40 MSTORE POP DUP2 ADD SWAP1 PUSH2 0x199C SWAP2 SWAP1 PUSH2 0x2545 JUMP JUMPDEST SWAP3 POP JUMPDEST DUP1 PUSH1 0x1 ADD SWAP1 POP PUSH2 0x16AA JUMP JUMPDEST POP DUP10 PUSH1 0x2 ADD SLOAD DUP2 LT PUSH2 0x19F1 JUMPI PUSH1 0x40 MLOAD PUSH32 0x8C379A000000000000000000000000000000000000000000000000000000000 DUP2 MSTORE PUSH1 0x4 ADD PUSH2 0x19E8 SWAP1 PUSH2 0x2C5B JUMP JUMPDEST PUSH1 0x40 MLOAD DUP1 SWAP2 SUB SWAP1 REVERT JUMPDEST DUP2 DUP11 PUSH1 0x1 ADD DUP2 SWAP1 SSTORE POP POP POP POP POP POP POP POP POP POP POP JUMP JUMPDEST PUSH32 0x918D46BF52D98B034413F4A1A1C41594E7A7A3F6AE08CB43D1A2A230E1959EF DUP2 JUMP JUMPDEST PUSH32 0x19DF90EC844EBC4FFEEBD866F33859B0C051D8C958EE3AA88F8F8DF3DB91A5B1 DUP2 JUMP JUMPDEST PUSH32 0x1F21FEB70D3F21B07BF853D5E5DB03071EC495A0A565A21DA2D665D279483795 DUP2 JUMP JUMPDEST PUSH32 0x2134E76AC5D21AAB186C2BE1DD8F84EE880A1E46EAF712F9D371B6DF22191F3E DUP2 JUMP JUMPDEST PUSH32 0x2B94CF5E8746B3F5C9631F4C5DF32907A699C58C94B2AD4D7B5CEC1639183F55 DUP2 JUMP JUMPDEST PUSH32 0x7F9D837CB17B0D36320FFE93BA52345F1B728571A568265CAAC97559DBC952A DUP2 JUMP JUMPDEST PUSH32 0x1BBEB01B4C479ECDE76917645E404DFA2E26F90D0AFC5A65128513AD375C5FF2 DUP2 JUMP JUMPDEST PUSH32 0x2098F5FB9E239EAB3CEAC3F27B81E481DC3124D55FFED523A839EE8446B64864 DUP2 JUMP JUMPDEST PUSH32 0x1F8D8822725E36385200C0B201249819A6E6E1E4650808B5BEBC6BFACE7D7636 DUP2 JUMP JUMPDEST PUSH32 0x1B7201DA72494F1E28717AD1A52EB469F95892F957713533DE6175E5DA190AF2 DUP2 JUMP JUMPDEST PUSH32 0x2F68A1C58E257E42A17A6C61DFF5551ED560B9922AB119D5AC8E184C9734EAD9 DUP2 JUMP JUMPDEST PUSH1 0x0 PUSH32 0x30644E72E131A029B85045B68181585D2833E84879B9709143E1F593F0000001 DUP7 LT PUSH2 0x1BF6 JUMPI PUSH1 0x40 MLOAD PUSH32 0x8C379A000000000000000000000000000000000000000000000000000000000 DUP2 MSTORE PUSH1 0x4 ADD PUSH2 0x1BED SWAP1 PUSH2 0x23B8 JUMP JUMPDEST PUSH1 0x40 MLOAD DUP1 SWAP2 SUB SWAP1 REVERT JUMPDEST PUSH1 0x0 DUP8 PUSH1 0x0 ADD SLOAD SWAP1 POP DUP1 DUP5 DUP5 SWAP1 POP EQ DUP1 ISZERO PUSH2 0x1C13 JUMPI POP DUP1 DUP7 DUP7 SWAP1 POP EQ JUMPDEST PUSH2 0x1C52 JUMPI PUSH1 0x40 MLOAD PUSH32 0x8C379A000000000000000000000000000000000000000000000000000000000 DUP2 MSTORE PUSH1 0x4 ADD PUSH2 0x1C49 SWAP1 PUSH2 0x2CED JUMP JUMPDEST PUSH1 0x40 MLOAD DUP1 SWAP2 SUB SWAP1 REVERT JUMPDEST PUSH1 0x0 DUP8 SWAP1 POP PUSH1 0x0 JUMPDEST DUP3 DUP2 PUSH1 0xFF AND LT ISZERO PUSH2 0x1F44 JUMPI PUSH32 0x30644E72E131A029B85045B68181585D2833E84879B9709143E1F593F0000001 DUP9 DUP9 DUP4 PUSH1 0xFF AND DUP2 DUP2 LT PUSH2 0x1C9C JUMPI PUSH2 0x1C9B PUSH2 0x27B1 JUMP JUMPDEST JUMPDEST SWAP1 POP PUSH1 0x20 MUL ADD CALLDATALOAD LT PUSH2 0x1CE3 JUMPI PUSH1 0x40 MLOAD PUSH32 0x8C379A000000000000000000000000000000000000000000000000000000000 DUP2 MSTORE PUSH1 0x4 ADD PUSH2 0x1CDA SWAP1 PUSH2 0x2D7F JUMP JUMPDEST PUSH1 0x40 MLOAD DUP1 SWAP2 SUB SWAP1 REVERT JUMPDEST PUSH1 0x1 DUP7 DUP7 DUP4 PUSH1 0xFF AND DUP2 DUP2 LT PUSH2 0x1CFB JUMPI PUSH2 0x1CFA PUSH2 0x27B1 JUMP JUMPDEST JUMPDEST SWAP1 POP PUSH1 0x20 MUL ADD PUSH1 0x20 DUP2 ADD SWAP1 PUSH2 0x1D10 SWAP2 SWAP1 PUSH2 0x2BBC JUMP JUMPDEST PUSH1 0xFF AND EQ DUP1 PUSH2 0x1D4C JUMPI POP PUSH1 0x0 DUP7 DUP7 DUP4 PUSH1 0xFF AND DUP2 DUP2 LT PUSH2 0x1D32 JUMPI PUSH2 0x1D31 PUSH2 0x27B1 JUMP JUMPDEST JUMPDEST SWAP1 POP PUSH1 0x20 MUL ADD PUSH1 0x20 DUP2 ADD SWAP1 PUSH2 0x1D47 SWAP2 SWAP1 PUSH2 0x2BBC JUMP JUMPDEST PUSH1 0xFF AND EQ JUMPDEST PUSH2 0x1D8B JUMPI PUSH1 0x40 MLOAD PUSH32 0x8C379A000000000000000000000000000000000000000000000000000000000 DUP2 MSTORE PUSH1 0x4 ADD PUSH2 0x1D82 SWAP1 PUSH2 0x2E11 JUMP JUMPDEST PUSH1 0x40 MLOAD DUP1 SWAP2 SUB SWAP1 REVERT JUMPDEST PUSH1 0x0 DUP7 DUP7 DUP4 PUSH1 0xFF AND DUP2 DUP2 LT PUSH2 0x1DA3 JUMPI PUSH2 0x1DA2 PUSH2 0x27B1 JUMP JUMPDEST JUMPDEST SWAP1 POP PUSH1 0x20 MUL ADD PUSH1 0x20 DUP2 ADD SWAP1 PUSH2 0x1DB8 SWAP2 SWAP1 PUSH2 0x2BBC JUMP JUMPDEST PUSH1 0xFF AND EQ ISZERO PUSH2 0x1E7F JUMPI PUSH20 0x0 PUSH4 0x561558FE PUSH1 0x40 MLOAD DUP1 PUSH1 0x40 ADD PUSH1 0x40 MSTORE DUP1 DUP6 DUP2 MSTORE PUSH1 0x20 ADD DUP12 DUP12 DUP7 PUSH1 0xFF AND DUP2 DUP2 LT PUSH2 0x1E02 JUMPI PUSH2 0x1E01 PUSH2 0x27B1 JUMP JUMPDEST JUMPDEST SWAP1 POP PUSH1 0x20 MUL ADD CALLDATALOAD DUP2 MSTORE POP PUSH1 0x40 MLOAD DUP3 PUSH4 0xFFFFFFFF AND PUSH1 0xE0 SHL DUP2 MSTORE PUSH1 0x4 ADD PUSH2 0x1E28 SWAP2 SWAP1 PUSH2 0x2515 JUMP JUMPDEST PUSH1 0x20 PUSH1 0x40 MLOAD DUP1 DUP4 SUB DUP2 DUP7 DUP1 EXTCODESIZE ISZERO DUP1 ISZERO PUSH2 0x1E40 JUMPI PUSH1 0x0 DUP1 REVERT JUMPDEST POP GAS DELEGATECALL ISZERO DUP1 ISZERO PUSH2 0x1E54 JUMPI RETURNDATASIZE PUSH1 0x0 DUP1 RETURNDATACOPY RETURNDATASIZE PUSH1 0x0 REVERT JUMPDEST POP POP POP POP PUSH1 0x40 MLOAD RETURNDATASIZE PUSH1 0x1F NOT PUSH1 0x1F DUP3 ADD AND DUP3 ADD DUP1 PUSH1 0x40 MSTORE POP DUP2 ADD SWAP1 PUSH2 0x1E78 SWAP2 SWAP1 PUSH2 0x2545 JUMP JUMPDEST SWAP2 POP PUSH2 0x1F39 JUMP JUMPDEST PUSH20 0x0 PUSH4 0x561558FE PUSH1 0x40 MLOAD DUP1 PUSH1 0x40 ADD PUSH1 0x40 MSTORE DUP1 DUP12 DUP12 DUP7 PUSH1 0xFF AND DUP2 DUP2 LT PUSH2 0x1EBA JUMPI PUSH2 0x1EB9 PUSH2 0x27B1 JUMP JUMPDEST JUMPDEST SWAP1 POP PUSH1 0x20 MUL ADD CALLDATALOAD DUP2 MSTORE PUSH1 0x20 ADD DUP6 DUP2 MSTORE POP PUSH1 0x40 MLOAD DUP3 PUSH4 0xFFFFFFFF AND PUSH1 0xE0 SHL DUP2 MSTORE PUSH1 0x4 ADD PUSH2 0x1EE6 SWAP2 SWAP1 PUSH2 0x2515 JUMP JUMPDEST PUSH1 0x20 PUSH1 0x40 MLOAD DUP1 DUP4 SUB DUP2 DUP7 DUP1 EXTCODESIZE ISZERO DUP1 ISZERO PUSH2 0x1EFE JUMPI PUSH1 0x0 DUP1 REVERT JUMPDEST POP GAS DELEGATECALL ISZERO DUP1 ISZERO PUSH2 0x1F12 JUMPI RETURNDATASIZE PUSH1 0x0 DUP1 RETURNDATACOPY RETURNDATASIZE PUSH1 0x0 REVERT JUMPDEST POP POP POP POP PUSH1 0x40 MLOAD RETURNDATASIZE PUSH1 0x1F NOT PUSH1 0x1F DUP3 ADD AND DUP3 ADD DUP1 PUSH1 0x40 MSTORE POP DUP2 ADD SWAP1 PUSH2 0x1F36 SWAP2 SWAP1 PUSH2 0x2545 JUMP JUMPDEST SWAP2 POP JUMPDEST DUP1 PUSH1 0x1 ADD SWAP1 POP PUSH2 0x1C5A JUMP JUMPDEST POP DUP9 PUSH1 0x1 ADD SLOAD DUP2 EQ SWAP3 POP POP POP SWAP7 SWAP6 POP POP POP POP POP POP JUMP JUMPDEST DUP3 PUSH1 0x2 DUP2 ADD SWAP3 DUP3 ISZERO PUSH2 0x1F89 JUMPI SWAP2 PUSH1 0x20 MUL DUP3 ADD JUMPDEST DUP3 DUP2 GT ISZERO PUSH2 0x1F88 JUMPI DUP3 MLOAD DUP3 SSTORE SWAP2 PUSH1 0x20 ADD SWAP2 SWAP1 PUSH1 0x1 ADD SWAP1 PUSH2 0x1F6D JUMP JUMPDEST JUMPDEST POP SWAP1 POP PUSH2 0x1F96 SWAP2 SWAP1 PUSH2 0x1F9A JUMP JUMPDEST POP SWAP1 JUMP JUMPDEST JUMPDEST DUP1 DUP3 GT ISZERO PUSH2 0x1FB3 JUMPI PUSH1 0x0 DUP2 PUSH1 0x0 SWAP1 SSTORE POP PUSH1 0x1 ADD PUSH2 0x1F9B JUMP JUMPDEST POP SWAP1 JUMP JUMPDEST PUSH1 0x0 DUP1 REVERT JUMPDEST PUSH1 0x0 DUP1 REVERT JUMPDEST PUSH1 0x0 DUP2 SWAP1 POP SWAP2 SWAP1 POP JUMP JUMPDEST PUSH2 0x1FD4 DUP2 PUSH2 0x1FC1 JUMP JUMPDEST DUP2 EQ PUSH2 0x1FDF JUMPI PUSH1 0x0 DUP1 REVERT JUMPDEST POP JUMP JUMPDEST PUSH1 0x0 DUP2 CALLDATALOAD SWAP1 POP PUSH2 0x1FF1 DUP2 PUSH2 0x1FCB JUMP JUMPDEST SWAP3 SWAP2 POP POP JUMP JUMPDEST PUSH1 0x0 DUP2 SWAP1 POP SWAP2 SWAP1 POP JUMP JUMPDEST PUSH2 0x200A DUP2 PUSH2 0x1FF7 JUMP JUMPDEST DUP2 EQ PUSH2 0x2015 JUMPI PUSH1 0x0 DUP1 REVERT JUMPDEST POP JUMP JUMPDEST PUSH1 0x0 DUP2 CALLDATALOAD SWAP1 POP PUSH2 0x2027 DUP2 PUSH2 0x2001 JUMP JUMPDEST SWAP3 SWAP2 POP POP JUMP JUMPDEST PUSH1 0x0 DUP1 REVERT JUMPDEST PUSH1 0x0 DUP1 REVERT JUMPDEST PUSH1 0x0 DUP1 REVERT JUMPDEST PUSH1 0x0 DUP1 DUP4 PUSH1 0x1F DUP5 ADD SLT PUSH2 0x2052 JUMPI PUSH2 0x2051 PUSH2 0x202D JUMP JUMPDEST JUMPDEST DUP3 CALLDATALOAD SWAP1 POP PUSH8 0xFFFFFFFFFFFFFFFF DUP2 GT ISZERO PUSH2 0x206F JUMPI PUSH2 0x206E PUSH2 0x2032 JUMP JUMPDEST JUMPDEST PUSH1 0x20 DUP4 ADD SWAP2 POP DUP4 PUSH1 0x20 DUP3 MUL DUP4 ADD GT ISZERO PUSH2 0x208B JUMPI PUSH2 0x208A PUSH2 0x2037 JUMP JUMPDEST JUMPDEST SWAP3 POP SWAP3 SWAP1 POP JUMP JUMPDEST PUSH1 0x0 DUP1 DUP4 PUSH1 0x1F DUP5 ADD SLT PUSH2 0x20A8 JUMPI PUSH2 0x20A7 PUSH2 0x202D JUMP JUMPDEST JUMPDEST DUP3 CALLDATALOAD SWAP1 POP PUSH8 0xFFFFFFFFFFFFFFFF DUP2 GT ISZERO PUSH2 0x20C5 JUMPI PUSH2 0x20C4 PUSH2 0x2032 JUMP JUMPDEST JUMPDEST PUSH1 0x20 DUP4 ADD SWAP2 POP DUP4 PUSH1 0x20 DUP3 MUL DUP4 ADD GT ISZERO PUSH2 0x20E1 JUMPI PUSH2 0x20E0 PUSH2 0x2037 JUMP JUMPDEST JUMPDEST SWAP3 POP SWAP3 SWAP1 POP JUMP JUMPDEST PUSH1 0x0 DUP1 PUSH1 0x0 DUP1 PUSH1 0x0 DUP1 PUSH1 0x80 DUP8 DUP10 SUB SLT ISZERO PUSH2 0x2105 JUMPI PUSH2 0x2104 PUSH2 0x1FB7 JUMP JUMPDEST JUMPDEST PUSH1 0x0 PUSH2 0x2113 DUP10 DUP3 DUP11 ADD PUSH2 0x1FE2 JUMP JUMPDEST SWAP7 POP POP PUSH1 0x20 PUSH2 0x2124 DUP10 DUP3 DUP11 ADD PUSH2 0x2018 JUMP JUMPDEST SWAP6 POP POP PUSH1 0x40 DUP8 ADD CALLDATALOAD PUSH8 0xFFFFFFFFFFFFFFFF DUP2 GT ISZERO PUSH2 0x2145 JUMPI PUSH2 0x2144 PUSH2 0x1FBC JUMP JUMPDEST JUMPDEST PUSH2 0x2151 DUP10 DUP3 DUP11 ADD PUSH2 0x203C JUMP JUMPDEST SWAP5 POP SWAP5 POP POP PUSH1 0x60 DUP8 ADD CALLDATALOAD PUSH8 0xFFFFFFFFFFFFFFFF DUP2 GT ISZERO PUSH2 0x2174 JUMPI PUSH2 0x2173 PUSH2 0x1FBC JUMP JUMPDEST JUMPDEST PUSH2 0x2180 DUP10 DUP3 DUP11 ADD PUSH2 0x2092 JUMP JUMPDEST SWAP3 POP SWAP3 POP POP SWAP3 SWAP6 POP SWAP3 SWAP6 POP SWAP3 SWAP6 JUMP JUMPDEST PUSH1 0x0 DUP1 PUSH1 0x0 PUSH1 0x60 DUP5 DUP7 SUB SLT ISZERO PUSH2 0x21A8 JUMPI PUSH2 0x21A7 PUSH2 0x1FB7 JUMP JUMPDEST JUMPDEST PUSH1 0x0 PUSH2 0x21B6 DUP7 DUP3 DUP8 ADD PUSH2 0x1FE2 JUMP JUMPDEST SWAP4 POP POP PUSH1 0x20 PUSH2 0x21C7 DUP7 DUP3 DUP8 ADD PUSH2 0x2018 JUMP JUMPDEST SWAP3 POP POP PUSH1 0x40 PUSH2 0x21D8 DUP7 DUP3 DUP8 ADD PUSH2 0x2018 JUMP JUMPDEST SWAP2 POP POP SWAP3 POP SWAP3 POP SWAP3 JUMP JUMPDEST PUSH2 0x21EB DUP2 PUSH2 0x1FF7 JUMP JUMPDEST DUP3 MSTORE POP POP JUMP JUMPDEST PUSH1 0x0 PUSH1 0x20 DUP3 ADD SWAP1 POP PUSH2 0x2206 PUSH1 0x0 DUP4 ADD DUP5 PUSH2 0x21E2 JUMP JUMPDEST SWAP3 SWAP2 POP POP JUMP JUMPDEST PUSH1 0x0 DUP1 PUSH1 0x40 DUP4 DUP6 SUB SLT ISZERO PUSH2 0x2223 JUMPI PUSH2 0x2222 PUSH2 0x1FB7 JUMP JUMPDEST JUMPDEST PUSH1 0x0 PUSH2 0x2231 DUP6 DUP3 DUP7 ADD PUSH2 0x1FE2 JUMP JUMPDEST SWAP3 POP POP PUSH1 0x20 PUSH2 0x2242 DUP6 DUP3 DUP7 ADD PUSH2 0x2018 JUMP JUMPDEST SWAP2 POP POP SWAP3 POP SWAP3 SWAP1 POP JUMP JUMPDEST PUSH1 0x0 PUSH1 0x20 DUP3 DUP5 SUB SLT ISZERO PUSH2 0x2262 JUMPI PUSH2 0x2261 PUSH2 0x1FB7 JUMP JUMPDEST JUMPDEST PUSH1 0x0 PUSH2 0x2270 DUP5 DUP3 DUP6 ADD PUSH2 0x2018 JUMP JUMPDEST SWAP2 POP POP SWAP3 SWAP2 POP POP JUMP JUMPDEST PUSH1 0x0 DUP1 PUSH1 0x0 DUP1 PUSH1 0x0 DUP1 PUSH1 0x0 PUSH1 0xA0 DUP9 DUP11 SUB SLT ISZERO PUSH2 0x2298 JUMPI PUSH2 0x2297 PUSH2 0x1FB7 JUMP JUMPDEST JUMPDEST PUSH1 0x0 PUSH2 0x22A6 DUP11 DUP3 DUP12 ADD PUSH2 0x1FE2 JUMP JUMPDEST SWAP8 POP POP PUSH1 0x20 PUSH2 0x22B7 DUP11 DUP3 DUP12 ADD PUSH2 0x2018 JUMP JUMPDEST SWAP7 POP POP PUSH1 0x40 PUSH2 0x22C8 DUP11 DUP3 DUP12 ADD PUSH2 0x2018 JUMP JUMPDEST SWAP6 POP POP PUSH1 0x60 DUP9 ADD CALLDATALOAD PUSH8 0xFFFFFFFFFFFFFFFF DUP2 GT ISZERO PUSH2 0x22E9 JUMPI PUSH2 0x22E8 PUSH2 0x1FBC JUMP JUMPDEST JUMPDEST PUSH2 0x22F5 DUP11 DUP3 DUP12 ADD PUSH2 0x203C JUMP JUMPDEST SWAP5 POP SWAP5 POP POP PUSH1 0x80 DUP9 ADD CALLDATALOAD PUSH8 0xFFFFFFFFFFFFFFFF DUP2 GT ISZERO PUSH2 0x2318 JUMPI PUSH2 0x2317 PUSH2 0x1FBC JUMP JUMPDEST JUMPDEST PUSH2 0x2324 DUP11 DUP3 DUP12 ADD PUSH2 0x2092 JUMP JUMPDEST SWAP3 POP SWAP3 POP POP SWAP3 SWAP6 SWAP9 SWAP2 SWAP5 SWAP8 POP SWAP3 SWAP6 POP JUMP JUMPDEST PUSH1 0x0 DUP3 DUP3 MSTORE PUSH1 0x20 DUP3 ADD SWAP1 POP SWAP3 SWAP2 POP POP JUMP JUMPDEST PUSH32 0x496E6372656D656E74616C42696E617279547265653A206C656166206D757374 PUSH1 0x0 DUP3 ADD MSTORE PUSH32 0x206265203C20534E41524B5F5343414C41525F4649454C440000000000000000 PUSH1 0x20 DUP3 ADD MSTORE POP JUMP JUMPDEST PUSH1 0x0 PUSH2 0x23A2 PUSH1 0x38 DUP4 PUSH2 0x2335 JUMP JUMPDEST SWAP2 POP PUSH2 0x23AD DUP3 PUSH2 0x2346 JUMP JUMPDEST PUSH1 0x40 DUP3 ADD SWAP1 POP SWAP2 SWAP1 POP JUMP JUMPDEST PUSH1 0x0 PUSH1 0x20 DUP3 ADD SWAP1 POP DUP2 DUP2 SUB PUSH1 0x0 DUP4 ADD MSTORE PUSH2 0x23D1 DUP2 PUSH2 0x2395 JUMP JUMPDEST SWAP1 POP SWAP2 SWAP1 POP JUMP JUMPDEST PUSH32 0x496E6372656D656E74616C42696E617279547265653A20747265652064657074 PUSH1 0x0 DUP3 ADD MSTORE PUSH32 0x68206D757374206265206265747765656E203120616E64203332000000000000 PUSH1 0x20 DUP3 ADD MSTORE POP JUMP JUMPDEST PUSH1 0x0 PUSH2 0x2434 PUSH1 0x3A DUP4 PUSH2 0x2335 JUMP JUMPDEST SWAP2 POP PUSH2 0x243F DUP3 PUSH2 0x23D8 JUMP JUMPDEST PUSH1 0x40 DUP3 ADD SWAP1 POP SWAP2 SWAP1 POP JUMP JUMPDEST PUSH1 0x0 PUSH1 0x20 DUP3 ADD SWAP1 POP DUP2 DUP2 SUB PUSH1 0x0 DUP4 ADD MSTORE PUSH2 0x2463 DUP2 PUSH2 0x2427 JUMP JUMPDEST SWAP1 POP SWAP2 SWAP1 POP JUMP JUMPDEST PUSH1 0x0 PUSH1 0x2 SWAP1 POP SWAP2 SWAP1 POP JUMP JUMPDEST PUSH1 0x0 DUP2 SWAP1 POP SWAP3 SWAP2 POP POP JUMP JUMPDEST PUSH1 0x0 DUP2 SWAP1 POP SWAP2 SWAP1 POP JUMP JUMPDEST PUSH2 0x2493 DUP2 PUSH2 0x1FF7 JUMP JUMPDEST DUP3 MSTORE POP POP JUMP JUMPDEST PUSH1 0x0 PUSH2 0x24A5 DUP4 DUP4 PUSH2 0x248A JUMP JUMPDEST PUSH1 0x20 DUP4 ADD SWAP1 POP SWAP3 SWAP2 POP POP JUMP JUMPDEST PUSH1 0x0 PUSH1 0x20 DUP3 ADD SWAP1 POP SWAP2 SWAP1 POP JUMP JUMPDEST PUSH2 0x24C7 DUP2 PUSH2 0x246A JUMP JUMPDEST PUSH2 0x24D1 DUP2 DUP5 PUSH2 0x2475 JUMP JUMPDEST SWAP3 POP PUSH2 0x24DC DUP3 PUSH2 0x2480 JUMP JUMPDEST DUP1 PUSH1 0x0 JUMPDEST DUP4 DUP2 LT ISZERO PUSH2 0x250D JUMPI DUP2 MLOAD PUSH2 0x24F4 DUP8 DUP3 PUSH2 0x2499 JUMP JUMPDEST SWAP7 POP PUSH2 0x24FF DUP4 PUSH2 0x24B1 JUMP JUMPDEST SWAP3 POP POP PUSH1 0x1 DUP2 ADD SWAP1 POP PUSH2 0x24E0 JUMP JUMPDEST POP POP POP POP POP POP JUMP JUMPDEST PUSH1 0x0 PUSH1 0x40 DUP3 ADD SWAP1 POP PUSH2 0x252A PUSH1 0x0 DUP4 ADD DUP5 PUSH2 0x24BE JUMP JUMPDEST SWAP3 SWAP2 POP POP JUMP JUMPDEST PUSH1 0x0 DUP2 MLOAD SWAP1 POP PUSH2 0x253F DUP2 PUSH2 0x2001 JUMP JUMPDEST SWAP3 SWAP2 POP POP JUMP JUMPDEST PUSH1 0x0 PUSH1 0x20 DUP3 DUP5 SUB SLT ISZERO PUSH2 0x255B JUMPI PUSH2 0x255A PUSH2 0x1FB7 JUMP JUMPDEST JUMPDEST PUSH1 0x0 PUSH2 0x2569 DUP5 DUP3 DUP6 ADD PUSH2 0x2530 JUMP JUMPDEST SWAP2 POP POP SWAP3 SWAP2 POP POP JUMP JUMPDEST PUSH32 0x4E487B7100000000000000000000000000000000000000000000000000000000 PUSH1 0x0 MSTORE PUSH1 0x11 PUSH1 0x4 MSTORE PUSH1 0x24 PUSH1 0x0 REVERT JUMPDEST PUSH1 0x0 DUP2 PUSH1 0x1 SHR SWAP1 POP SWAP2 SWAP1 POP JUMP JUMPDEST PUSH1 0x0 DUP1 DUP3 SWAP2 POP DUP4 SWAP1 POP JUMPDEST PUSH1 0x1 DUP6 GT ISZERO PUSH2 0x25F8 JUMPI DUP1 DUP7 DIV DUP2 GT ISZERO PUSH2 0x25D4 JUMPI PUSH2 0x25D3 PUSH2 0x2572 JUMP JUMPDEST JUMPDEST PUSH1 0x1 DUP6 AND ISZERO PUSH2 0x25E3 JUMPI DUP1 DUP3 MUL SWAP2 POP JUMPDEST DUP1 DUP2 MUL SWAP1 POP PUSH2 0x25F1 DUP6 PUSH2 0x25A1 JUMP JUMPDEST SWAP5 POP PUSH2 0x25B8 JUMP JUMPDEST SWAP5 POP SWAP5 SWAP3 POP POP POP JUMP JUMPDEST PUSH1 0x0 DUP3 PUSH2 0x2611 JUMPI PUSH1 0x1 SWAP1 POP PUSH2 0x26CD JUMP JUMPDEST DUP2 PUSH2 0x261F JUMPI PUSH1 0x0 SWAP1 POP PUSH2 0x26CD JUMP JUMPDEST DUP2 PUSH1 0x1 DUP2 EQ PUSH2 0x2635 JUMPI PUSH1 0x2 DUP2 EQ PUSH2 0x263F JUMPI PUSH2 0x266E JUMP JUMPDEST PUSH1 0x1 SWAP2 POP POP PUSH2 0x26CD JUMP JUMPDEST PUSH1 0xFF DUP5 GT ISZERO PUSH2 0x2651 JUMPI PUSH2 0x2650 PUSH2 0x2572 JUMP JUMPDEST JUMPDEST DUP4 PUSH1 0x2 EXP SWAP2 POP DUP5 DUP3 GT ISZERO PUSH2 0x2668 JUMPI PUSH2 0x2667 PUSH2 0x2572 JUMP JUMPDEST JUMPDEST POP PUSH2 0x26CD JUMP JUMPDEST POP PUSH1 0x20 DUP4 LT PUSH2 0x133 DUP4 LT AND PUSH1 0x4E DUP5 LT PUSH1 0xB DUP5 LT AND OR ISZERO PUSH2 0x26A3 JUMPI DUP3 DUP3 EXP SWAP1 POP DUP4 DUP2 GT ISZERO PUSH2 0x269E JUMPI PUSH2 0x269D PUSH2 0x2572 JUMP JUMPDEST JUMPDEST PUSH2 0x26CD JUMP JUMPDEST PUSH2 0x26B0 DUP5 DUP5 DUP5 PUSH1 0x1 PUSH2 0x25AE JUMP JUMPDEST SWAP3 POP SWAP1 POP DUP2 DUP5 DIV DUP2 GT ISZERO PUSH2 0x26C7 JUMPI PUSH2 0x26C6 PUSH2 0x2572 JUMP JUMPDEST JUMPDEST DUP2 DUP2 MUL SWAP1 POP JUMPDEST SWAP4 SWAP3 POP POP POP JUMP JUMPDEST PUSH1 0x0 PUSH2 0x26DF DUP3 PUSH2 0x1FF7 JUMP JUMPDEST SWAP2 POP PUSH2 0x26EA DUP4 PUSH2 0x1FF7 JUMP JUMPDEST SWAP3 POP PUSH2 0x2717 PUSH32 0xFFFFFFFFFFFFFFFFFFFFFFFFFFFFFFFFFFFFFFFFFFFFFFFFFFFFFFFFFFFFFFFF DUP5 DUP5 PUSH2 0x2601 JUMP JUMPDEST SWAP1 POP SWAP3 SWAP2 POP POP JUMP JUMPDEST PUSH32 0x496E6372656D656E74616C42696E617279547265653A20747265652069732066 PUSH1 0x0 DUP3 ADD MSTORE PUSH32 0x756C6C0000000000000000000000000000000000000000000000000000000000 PUSH1 0x20 DUP3 ADD MSTORE POP JUMP JUMPDEST PUSH1 0x0 PUSH2 0x277B PUSH1 0x23 DUP4 PUSH2 0x2335 JUMP JUMPDEST SWAP2 POP PUSH2 0x2786 DUP3 PUSH2 0x271F JUMP JUMPDEST PUSH1 0x40 DUP3 ADD SWAP1 POP SWAP2 SWAP1 POP JUMP JUMPDEST PUSH1 0x0 PUSH1 0x20 DUP3 ADD SWAP1 POP DUP2 DUP2 SUB PUSH1 0x0 DUP4 ADD MSTORE PUSH2 0x27AA DUP2 PUSH2 0x276E JUMP JUMPDEST SWAP1 POP SWAP2 SWAP1 POP JUMP JUMPDEST PUSH32 0x4E487B7100000000000000000000000000000000000000000000000000000000 PUSH1 0x0 MSTORE PUSH1 0x32 PUSH1 0x4 MSTORE PUSH1 0x24 PUSH1 0x0 REVERT JUMPDEST PUSH1 0x0 PUSH1 0x2 SWAP1 POP SWAP2 SWAP1 POP JUMP JUMPDEST PUSH1 0x0 DUP2 SWAP1 POP SWAP2 SWAP1 POP JUMP JUMPDEST PUSH1 0x0 DUP2 PUSH1 0x0 SHR SWAP1 POP SWAP2 SWAP1 POP JUMP JUMPDEST PUSH1 0x0 DUP2 SWAP1 POP SWAP2 SWAP1 POP JUMP JUMPDEST PUSH1 0x0 PUSH2 0x281F PUSH2 0x281A DUP4 PUSH2 0x27F5 JUMP JUMPDEST PUSH2 0x2802 JUMP JUMPDEST SWAP1 POP SWAP2 SWAP1 POP JUMP JUMPDEST PUSH1 0x0 PUSH2 0x2832 DUP3 SLOAD PUSH2 0x280C JUMP JUMPDEST SWAP1 POP SWAP2 SWAP1 POP JUMP JUMPDEST PUSH1 0x0 PUSH1 0x1 DUP3 ADD SWAP1 POP SWAP2 SWAP1 POP JUMP JUMPDEST PUSH2 0x284F DUP2 PUSH2 0x27E0 JUMP JUMPDEST PUSH2 0x2859 DUP2 DUP5 PUSH2 0x2475 JUMP JUMPDEST SWAP3 POP PUSH2 0x2864 DUP3 PUSH2 0x27EB JUMP JUMPDEST DUP1 PUSH1 0x0 JUMPDEST DUP4 DUP2 LT ISZERO PUSH2 0x289C JUMPI PUSH2 0x2879 DUP3 PUSH2 0x2826 JUMP JUMPDEST PUSH2 0x2883 DUP8 DUP3 PUSH2 0x2499 JUMP JUMPDEST SWAP7 POP PUSH2 0x288E DUP4 PUSH2 0x2839 JUMP JUMPDEST SWAP3 POP POP PUSH1 0x1 DUP2 ADD SWAP1 POP PUSH2 0x2868 JUMP JUMPDEST POP POP POP POP POP POP JUMP JUMPDEST PUSH1 0x0 PUSH1 0x40 DUP3 ADD SWAP1 POP PUSH2 0x28B9 PUSH1 0x0 DUP4 ADD DUP5 PUSH2 0x2846 JUMP JUMPDEST SWAP3 SWAP2 POP POP JUMP JUMPDEST PUSH1 0x0 PUSH2 0x28CA DUP3 PUSH2 0x1FF7 JUMP JUMPDEST SWAP2 POP PUSH2 0x28D5 DUP4 PUSH2 0x1FF7 JUMP JUMPDEST SWAP3 POP DUP3 PUSH32 0xFFFFFFFFFFFFFFFFFFFFFFFFFFFFFFFFFFFFFFFFFFFFFFFFFFFFFFFFFFFFFFFF SUB DUP3 GT ISZERO PUSH2 0x290A JUMPI PUSH2 0x2909 PUSH2 0x2572 JUMP JUMPDEST JUMPDEST DUP3 DUP3 ADD SWAP1 POP SWAP3 SWAP2 POP POP JUMP JUMPDEST PUSH32 0x496E6372656D656E74616C42696E617279547265653A2064656661756C745A65 PUSH1 0x0 DUP3 ADD MSTORE PUSH32 0x726F2062616420696E6465780000000000000000000000000000000000000000 PUSH1 0x20 DUP3 ADD MSTORE POP JUMP JUMPDEST PUSH1 0x0 PUSH2 0x2971 PUSH1 0x2C DUP4 PUSH2 0x2335 JUMP JUMPDEST SWAP2 POP PUSH2 0x297C DUP3 PUSH2 0x2915 JUMP JUMPDEST PUSH1 0x40 DUP3 ADD SWAP1 POP SWAP2 SWAP1 POP JUMP JUMPDEST PUSH1 0x0 PUSH1 0x20 DUP3 ADD SWAP1 POP DUP2 DUP2 SUB PUSH1 0x0 DUP4 ADD MSTORE PUSH2 0x29A0 DUP2 PUSH2 0x2964 JUMP JUMPDEST SWAP1 POP SWAP2 SWAP1 POP JUMP JUMPDEST PUSH32 0x496E6372656D656E74616C42696E617279547265653A206E6577206C65616620 PUSH1 0x0 DUP3 ADD MSTORE PUSH32 0x63616E6E6F74206265207468652073616D6520617320746865206F6C64206F6E PUSH1 0x20 DUP3 ADD MSTORE PUSH32 0x6500000000000000000000000000000000000000000000000000000000000000 PUSH1 0x40 DUP3 ADD MSTORE POP JUMP JUMPDEST PUSH1 0x0 PUSH2 0x2A29 PUSH1 0x41 DUP4 PUSH2 0x2335 JUMP JUMPDEST SWAP2 POP PUSH2 0x2A34 DUP3 PUSH2 0x29A7 JUMP JUMPDEST PUSH1 0x60 DUP3 ADD SWAP1 POP SWAP2 SWAP1 POP JUMP JUMPDEST PUSH1 0x0 PUSH1 0x20 DUP3 ADD SWAP1 POP DUP2 DUP2 SUB PUSH1 0x0 DUP4 ADD MSTORE PUSH2 0x2A58 DUP2 PUSH2 0x2A1C JUMP JUMPDEST SWAP1 POP SWAP2 SWAP1 POP JUMP JUMPDEST PUSH32 0x496E6372656D656E74616C42696E617279547265653A206E6577206C65616620 PUSH1 0x0 DUP3 ADD MSTORE PUSH32 0x6D757374206265203C20534E41524B5F5343414C41525F4649454C4400000000 PUSH1 0x20 DUP3 ADD MSTORE POP JUMP JUMPDEST PUSH1 0x0 PUSH2 0x2ABB PUSH1 0x3C DUP4 PUSH2 0x2335 JUMP JUMPDEST SWAP2 POP PUSH2 0x2AC6 DUP3 PUSH2 0x2A5F JUMP JUMPDEST PUSH1 0x40 DUP3 ADD SWAP1 POP SWAP2 SWAP1 POP JUMP JUMPDEST PUSH1 0x0 PUSH1 0x20 DUP3 ADD SWAP1 POP DUP2 DUP2 SUB PUSH1 0x0 DUP4 ADD MSTORE PUSH2 0x2AEA DUP2 PUSH2 0x2AAE JUMP JUMPDEST SWAP1 POP SWAP2 SWAP1 POP JUMP JUMPDEST PUSH32 0x496E6372656D656E74616C42696E617279547265653A206C656166206973206E PUSH1 0x0 DUP3 ADD MSTORE PUSH32 0x6F742070617274206F6620746865207472656500000000000000000000000000 PUSH1 0x20 DUP3 ADD MSTORE POP JUMP JUMPDEST PUSH1 0x0 PUSH2 0x2B4D PUSH1 0x33 DUP4 PUSH2 0x2335 JUMP JUMPDEST SWAP2 POP PUSH2 0x2B58 DUP3 PUSH2 0x2AF1 JUMP JUMPDEST PUSH1 0x40 DUP3 ADD SWAP1 POP SWAP2 SWAP1 POP JUMP JUMPDEST PUSH1 0x0 PUSH1 0x20 DUP3 ADD SWAP1 POP DUP2 DUP2 SUB PUSH1 0x0 DUP4 ADD MSTORE PUSH2 0x2B7C DUP2 PUSH2 0x2B40 JUMP JUMPDEST SWAP1 POP SWAP2 SWAP1 POP JUMP JUMPDEST PUSH1 0x0 PUSH1 0xFF DUP3 AND SWAP1 POP SWAP2 SWAP1 POP JUMP JUMPDEST PUSH2 0x2B99 DUP2 PUSH2 0x2B83 JUMP JUMPDEST DUP2 EQ PUSH2 0x2BA4 JUMPI PUSH1 0x0 DUP1 REVERT JUMPDEST POP JUMP JUMPDEST PUSH1 0x0 DUP2 CALLDATALOAD SWAP1 POP PUSH2 0x2BB6 DUP2 PUSH2 0x2B90 JUMP JUMPDEST SWAP3 SWAP2 POP POP JUMP JUMPDEST PUSH1 0x0 PUSH1 0x20 DUP3 DUP5 SUB SLT ISZERO PUSH2 0x2BD2 JUMPI PUSH2 0x2BD1 PUSH2 0x1FB7 JUMP JUMPDEST JUMPDEST PUSH1 0x0 PUSH2 0x2BE0 DUP5 DUP3 DUP6 ADD PUSH2 0x2BA7 JUMP JUMPDEST SWAP2 POP POP SWAP3 SWAP2 POP POP JUMP JUMPDEST PUSH32 0x496E6372656D656E74616C42696E617279547265653A206C65616620696E6465 PUSH1 0x0 DUP3 ADD MSTORE PUSH32 0x78206F7574206F662072616E6765000000000000000000000000000000000000 PUSH1 0x20 DUP3 ADD MSTORE POP JUMP JUMPDEST PUSH1 0x0 PUSH2 0x2C45 PUSH1 0x2E DUP4 PUSH2 0x2335 JUMP JUMPDEST SWAP2 POP PUSH2 0x2C50 DUP3 PUSH2 0x2BE9 JUMP JUMPDEST PUSH1 0x40 DUP3 ADD SWAP1 POP SWAP2 SWAP1 POP JUMP JUMPDEST PUSH1 0x0 PUSH1 0x20 DUP3 ADD SWAP1 POP DUP2 DUP2 SUB PUSH1 0x0 DUP4 ADD MSTORE PUSH2 0x2C74 DUP2 PUSH2 0x2C38 JUMP JUMPDEST SWAP1 POP SWAP2 SWAP1 POP JUMP JUMPDEST PUSH32 0x496E6372656D656E74616C42696E617279547265653A206C656E677468206F66 PUSH1 0x0 DUP3 ADD MSTORE PUSH32 0x2070617468206973206E6F7420636F7272656374000000000000000000000000 PUSH1 0x20 DUP3 ADD MSTORE POP JUMP JUMPDEST PUSH1 0x0 PUSH2 0x2CD7 PUSH1 0x34 DUP4 PUSH2 0x2335 JUMP JUMPDEST SWAP2 POP PUSH2 0x2CE2 DUP3 PUSH2 0x2C7B JUMP JUMPDEST PUSH1 0x40 DUP3 ADD SWAP1 POP SWAP2 SWAP1 POP JUMP JUMPDEST PUSH1 0x0 PUSH1 0x20 DUP3 ADD SWAP1 POP DUP2 DUP2 SUB PUSH1 0x0 DUP4 ADD MSTORE PUSH2 0x2D06 DUP2 PUSH2 0x2CCA JUMP JUMPDEST SWAP1 POP SWAP2 SWAP1 POP JUMP JUMPDEST PUSH32 0x496E6372656D656E74616C42696E617279547265653A207369626C696E67206E PUSH1 0x0 DUP3 ADD MSTORE PUSH32 0x6F6465206D757374206265203C20534E41524B5F5343414C41525F4649454C44 PUSH1 0x20 DUP3 ADD MSTORE POP JUMP JUMPDEST PUSH1 0x0 PUSH2 0x2D69 PUSH1 0x40 DUP4 PUSH2 0x2335 JUMP JUMPDEST SWAP2 POP PUSH2 0x2D74 DUP3 PUSH2 0x2D0D JUMP JUMPDEST PUSH1 0x40 DUP3 ADD SWAP1 POP SWAP2 SWAP1 POP JUMP JUMPDEST PUSH1 0x0 PUSH1 0x20 DUP3 ADD SWAP1 POP DUP2 DUP2 SUB PUSH1 0x0 DUP4 ADD MSTORE PUSH2 0x2D98 DUP2 PUSH2 0x2D5C JUMP JUMPDEST SWAP1 POP SWAP2 SWAP1 POP JUMP JUMPDEST PUSH32 0x496E6372656D656E74616C42696E617279547265653A207061746820696E6465 PUSH1 0x0 DUP3 ADD MSTORE PUSH32 0x78206973206E6569746865722030206E6F722031000000000000000000000000 PUSH1 0x20 DUP3 ADD MSTORE POP JUMP JUMPDEST PUSH1 0x0 PUSH2 0x2DFB PUSH1 0x34 DUP4 PUSH2 0x2335 JUMP JUMPDEST SWAP2 POP PUSH2 0x2E06 DUP3 PUSH2 0x2D9F JUMP JUMPDEST PUSH1 0x40 DUP3 ADD SWAP1 POP SWAP2 SWAP1 POP JUMP JUMPDEST PUSH1 0x0 PUSH1 0x20 DUP3 ADD SWAP1 POP DUP2 DUP2 SUB PUSH1 0x0 DUP4 ADD MSTORE PUSH2 0x2E2A DUP2 PUSH2 0x2DEE JUMP JUMPDEST SWAP1 POP SWAP2 SWAP1 POP JUMP INVALID LOG2 PUSH5 0x6970667358 0x22 SLT KECCAK256 0x5F 0xE3 GAS 0xDE PUSH1 0x62 EXTCODESIZE POP 0xC5 0xB1 0x5D SUB PUSH15 0x61A2F8C344E885F2393552D035AE48 0xB2 SHL CREATE2 0xC4 PUSH5 0x736F6C6343 STOP ADDMOD MULMOD STOP CALLER "},"methodIdentifiers":{"Z_0()":"65ad985e","Z_1()":"ccbad174","Z_10()":"eb095a7d","Z_11()":"d2aa5c62","Z_12()":"9bf21071","Z_13()":"54f5a901","Z_14()":"65f7bec3","Z_15()":"a3205067","Z_16()":"89d0e932","Z_17()":"309ec3c3","Z_18()":"55005f76","Z_19()":"64048bf2","Z_2()":"52be1fb8","Z_20()":"b5f35eb9","Z_21()":"b1849a1a","Z_22()":"30314fc0","Z_23()":"1ddbea00","Z_24()":"5da707d4","Z_25()":"3994a957","Z_26()":"11505544","Z_27()":"b410396a","Z_28()":"44f9e1ac","Z_29()":"9cda4774","Z_3()":"8836ccf6","Z_30()":"af9d047c","Z_31()":"c7fadc67","Z_32()":"f49babe6","Z_4()":"c6675bbf","Z_5()":"c0c5bf67","Z_6()":"565b427e","Z_7()":"5fcde067","Z_8()":"583f8af4","Z_9()":"94804215","defaultZero(uint256)":"18f18fb1","init(IncrementalTreeData storage,uint256,uint256)":"1095fbb4","initWithDefaultZeroes(IncrementalTreeData storage,uint256)":"12b3a2fb","insert(IncrementalTreeData storage,uint256)":"168703fa","remove(IncrementalTreeData storage,uint256,uint256[],uint8[])":"0629596f","update(IncrementalTreeData storage,uint256,uint256,uint256[],uint8[])":"a5478827"}}}}}