{
  "_format": "hh-sol-artifact-1",
  "contractName": "CredentialsDB",
  "sourceName": "contracts/CredentialsDB.sol",
  "abi": [
    {
      "inputs": [
        {
          "internalType": "address",
          "name": "_verifier",
          "type": "address"
        }
      ],
      "stateMutability": "nonpayable",
      "type": "constructor"
    },
    {
      "anonymous": false,
      "inputs": [
        {
          "indexed": false,
          "internalType": "uint32",
          "name": "credentialNo",
          "type": "uint32"
        }
      ],
      "name": "CredentialSavedInRegister",
      "type": "event"
    },
    {
      "anonymous": false,
      "inputs": [
        {
          "indexed": false,
          "internalType": "uint256",
          "name": "leaf",
          "type": "uint256"
        },
        {
          "indexed": false,
          "internalType": "uint256",
          "name": "root",
          "type": "uint256"
        }
      ],
      "name": "LeafInserted",
      "type": "event"
    },
    {
      "anonymous": false,
      "inputs": [
        {
          "indexed": true,
          "internalType": "address",
          "name": "previousOwner",
          "type": "address"
        },
        {
          "indexed": true,
          "internalType": "address",
          "name": "newOwner",
          "type": "address"
        }
      ],
      "name": "OwnershipTransferred",
      "type": "event"
    },
    {
      "inputs": [],
      "name": "TREE_DEPTH",
      "outputs": [
        {
          "internalType": "uint32",
          "name": "",
          "type": "uint32"
        }
      ],
      "stateMutability": "view",
      "type": "function"
    },
    {
      "inputs": [],
      "name": "credentialsCounter",
      "outputs": [
        {
          "internalType": "uint32",
          "name": "",
          "type": "uint32"
        }
      ],
      "stateMutability": "view",
      "type": "function"
    },
    {
      "inputs": [
        {
          "internalType": "uint256",
          "name": "",
          "type": "uint256"
        }
      ],
      "name": "credentialsRegister",
      "outputs": [
        {
          "internalType": "string",
          "name": "",
          "type": "string"
        }
      ],
      "stateMutability": "view",
      "type": "function"
    },
    {
      "inputs": [],
      "name": "credentialsSchema",
      "outputs": [
        {
          "internalType": "string",
          "name": "",
          "type": "string"
        }
      ],
      "stateMutability": "view",
      "type": "function"
    },
    {
      "inputs": [],
      "name": "credentialsSchemaSet",
      "outputs": [
        {
          "internalType": "bool",
          "name": "",
          "type": "bool"
        }
      ],
      "stateMutability": "view",
      "type": "function"
    },
    {
      "inputs": [],
      "name": "getLeavesArray",
      "outputs": [
        {
          "internalType": "uint256[]",
          "name": "",
          "type": "uint256[]"
        }
      ],
      "stateMutability": "view",
      "type": "function"
    },
    {
      "inputs": [],
      "name": "getMerkleRoot",
      "outputs": [
        {
          "internalType": "uint256",
          "name": "",
          "type": "uint256"
        }
      ],
      "stateMutability": "view",
      "type": "function"
    },
    {
      "inputs": [
        {
          "internalType": "uint256",
          "name": "",
          "type": "uint256"
        }
      ],
      "name": "leavesArray",
      "outputs": [
        {
          "internalType": "uint256",
          "name": "",
          "type": "uint256"
        }
      ],
      "stateMutability": "view",
      "type": "function"
    },
    {
      "inputs": [],
      "name": "owner",
      "outputs": [
        {
          "internalType": "address",
          "name": "",
          "type": "address"
        }
      ],
      "stateMutability": "view",
      "type": "function"
    },
    {
      "inputs": [],
      "name": "renounceOwnership",
      "outputs": [],
      "stateMutability": "nonpayable",
      "type": "function"
    },
    {
      "inputs": [
        {
          "internalType": "string",
          "name": "data",
          "type": "string"
        },
        {
          "internalType": "uint256",
          "name": "leaf",
          "type": "uint256"
        }
      ],
      "name": "saveCredential",
      "outputs": [],
      "stateMutability": "nonpayable",
      "type": "function"
    },
    {
      "inputs": [
        {
          "internalType": "string",
          "name": "schema",
          "type": "string"
        }
      ],
      "name": "setCredentialsSchema",
      "outputs": [],
      "stateMutability": "nonpayable",
      "type": "function"
    },
    {
      "inputs": [
        {
          "internalType": "address",
          "name": "newOwner",
          "type": "address"
        }
      ],
      "name": "transferOwnership",
      "outputs": [],
      "stateMutability": "nonpayable",
      "type": "function"
    },
    {
      "inputs": [],
      "name": "tree",
      "outputs": [
        {
          "internalType": "uint256",
          "name": "depth",
          "type": "uint256"
        },
        {
          "internalType": "uint256",
          "name": "root",
          "type": "uint256"
        },
        {
          "internalType": "uint256",
          "name": "numberOfLeaves",
          "type": "uint256"
        },
        {
          "internalType": "bool",
          "name": "useDefaultZeroes",
          "type": "bool"
        }
      ],
      "stateMutability": "view",
      "type": "function"
    },
    {
      "inputs": [],
      "name": "verifier",
      "outputs": [
        {
          "internalType": "address",
          "name": "",
          "type": "address"
        }
      ],
      "stateMutability": "view",
      "type": "function"
    },
    {
      "inputs": [
        {
          "internalType": "uint256",
          "name": "i",
          "type": "uint256"
        }
      ],
      "name": "viewArray",
      "outputs": [
        {
          "internalType": "string",
          "name": "",
          "type": "string"
        }
      ],
      "stateMutability": "view",
      "type": "function"
    }
  ],
  "bytecode": "0x60806040526000600260006101000a81548160ff0219169083151502179055506000600b60006101000a81548163ffffffff021916908363ffffffff1602179055503480156200004e57600080fd5b506040516200184638038062001846833981810160405281019062000074919062000286565b62000094620000886200015060201b60201c565b6200015860201b60201c565b600373__$0c6eb7207c37accf1552a1c47686411ac0$__631095fbb49091601060006040518463ffffffff1660e01b8152600401620000d6939291906200035f565b60006040518083038186803b158015620000ef57600080fd5b505af415801562000104573d6000803e3d6000fd5b5050505080600260016101000a81548173ffffffffffffffffffffffffffffffffffffffff021916908373ffffffffffffffffffffffffffffffffffffffff160217905550506200039c565b600033905090565b60008060009054906101000a900473ffffffffffffffffffffffffffffffffffffffff169050816000806101000a81548173ffffffffffffffffffffffffffffffffffffffff021916908373ffffffffffffffffffffffffffffffffffffffff1602179055508173ffffffffffffffffffffffffffffffffffffffff168173ffffffffffffffffffffffffffffffffffffffff167f8be0079c531659141344cd1fd0a4f28419497f9722a3daafe3b4186f6b6457e060405160405180910390a35050565b600080fd5b600073ffffffffffffffffffffffffffffffffffffffff82169050919050565b60006200024e8262000221565b9050919050565b620002608162000241565b81146200026c57600080fd5b50565b600081519050620002808162000255565b92915050565b6000602082840312156200029f576200029e6200021c565b5b6000620002af848285016200026f565b91505092915050565b8082525050565b600063ffffffff82169050919050565b6000819050919050565b6000819050919050565b600062000304620002fe620002f884620002bf565b620002d9565b620002cf565b9050919050565b6200031681620002e3565b82525050565b6000819050919050565b600062000347620003416200033b846200031c565b620002d9565b620002cf565b9050919050565b620003598162000326565b82525050565b6000606082019050620003766000830186620002b8565b6200038560208301856200030b565b6200039460408301846200034e565b949350505050565b61149a80620003ac6000396000f3fe608060405234801561001057600080fd5b50600436106101005760003560e01c806376694ce411610097578063bde7e56811610066578063bde7e56814610279578063f1650536146102a9578063f2fde38b146102c7578063fd54b228146102e357610100565b806376694ce4146102035780638da5cb5b146102215780639fa560e31461023f578063a08e8a3d1461025d57610100565b806349590657116100d357806349590657146101a15780636e838b9b146101bf578063715018a6146101db57806374b7cb23146101e557610100565b80631d3e890e146101055780632b7ac3f31461013557806332cf9991146101535780633a8b284914610171575b600080fd5b61011f600480360381019061011a9190610bca565b610304565b60405161012c9190610c90565b60405180910390f35b61013d6103b0565b60405161014a9190610cf3565b60405180910390f35b61015b6103d6565b6040516101689190610dcc565b60405180910390f35b61018b60048036038101906101869190610bca565b61042e565b6040516101989190610dfd565b60405180910390f35b6101a9610452565b6040516101b69190610dfd565b60405180910390f35b6101d960048036038101906101d49190610f4d565b61045f565b005b6101e36104ec565b005b6101ed610500565b6040516101fa9190610c90565b60405180910390f35b61020b61058e565b6040516102189190610fb1565b60405180910390f35b6102296105a1565b6040516102369190610cf3565b60405180910390f35b6102476105ca565b6040516102549190610feb565b60405180910390f35b61027760048036038101906102729190611066565b6105e0565b005b610293600480360381019061028e9190610bca565b6107a9565b6040516102a09190610c90565b60405180910390f35b6102b1610859565b6040516102be9190610feb565b60405180910390f35b6102e160048036038101906102dc91906110f2565b61085e565b005b6102eb6108e2565b6040516102fb949392919061111f565b60405180910390f35b600a818154811061031457600080fd5b90600052602060002001600091509050805461032f90611193565b80601f016020809104026020016040519081016040528092919081815260200182805461035b90611193565b80156103a85780601f1061037d576101008083540402835291602001916103a8565b820191906000526020600020905b81548152906001019060200180831161038b57829003601f168201915b505050505081565b600260019054906101000a900473ffffffffffffffffffffffffffffffffffffffff1681565b6060600980548060200260200160405190810160405280929190818152602001828054801561042457602002820191906000526020600020905b815481526020019060010190808311610410575b5050505050905090565b6009818154811061043e57600080fd5b906000526020600020016000915090505481565b6000600360010154905090565b61046761090d565b600260009054906101000a900460ff16156104b7576040517f08c379a00000000000000000000000000000000000000000000000000000000081526004016104ae90611211565b60405180910390fd5b80600190805190602001906104cd929190610a57565b506001600260006101000a81548160ff02191690831515021790555050565b6104f461090d565b6104fe600061098b565b565b6001805461050d90611193565b80601f016020809104026020016040519081016040528092919081815260200182805461053990611193565b80156105865780601f1061055b57610100808354040283529160200191610586565b820191906000526020600020905b81548152906001019060200180831161056957829003601f168201915b505050505081565b600260009054906101000a900460ff1681565b60008060009054906101000a900473ffffffffffffffffffffffffffffffffffffffff16905090565b600b60009054906101000a900463ffffffff1681565b6105e861090d565b600a838390918060018154018082558091505060019003906000526020600020016000909192909192909192909192509190610625929190610add565b50600373__$0c6eb7207c37accf1552a1c47686411ac0$__63168703fa9091836040518363ffffffff1660e01b8152600401610662929190611247565b60206040518083038186803b15801561067a57600080fd5b505af415801561068e573d6000803e3d6000fd5b505050506040513d601f19601f820116820180604052508101906106b29190611285565b506009819080600181540180825580915050600190039060005260206000200160009091909190915055600b600081819054906101000a900463ffffffff16809291906106fe906112e1565b91906101000a81548163ffffffff021916908363ffffffff160217905550507f604f5a492f8c1622a2e239876074a13b33ec11384fe2b310339ece35e8eecac78160036001015460405161075392919061130e565b60405180910390a17f9ed6bba91a3213fcd4171c5f056c0c2121710edbdd31b30e9b68a5563ad9fe97600b60009054906101000a900463ffffffff1660405161079c9190610feb565b60405180910390a1505050565b6060600a82815481106107bf576107be611337565b5b9060005260206000200180546107d490611193565b80601f016020809104026020016040519081016040528092919081815260200182805461080090611193565b801561084d5780601f106108225761010080835404028352916020019161084d565b820191906000526020600020905b81548152906001019060200180831161083057829003601f168201915b50505050509050919050565b601081565b61086661090d565b600073ffffffffffffffffffffffffffffffffffffffff168173ffffffffffffffffffffffffffffffffffffffff1614156108d6576040517f08c379a00000000000000000000000000000000000000000000000000000000081526004016108cd906113d8565b60405180910390fd5b6108df8161098b565b50565b60038060000154908060010154908060020154908060050160009054906101000a900460ff16905084565b610915610a4f565b73ffffffffffffffffffffffffffffffffffffffff166109336105a1565b73ffffffffffffffffffffffffffffffffffffffff1614610989576040517f08c379a000000000000000000000000000000000000000000000000000000000815260040161098090611444565b60405180910390fd5b565b60008060009054906101000a900473ffffffffffffffffffffffffffffffffffffffff169050816000806101000a81548173ffffffffffffffffffffffffffffffffffffffff021916908373ffffffffffffffffffffffffffffffffffffffff1602179055508173ffffffffffffffffffffffffffffffffffffffff168173ffffffffffffffffffffffffffffffffffffffff167f8be0079c531659141344cd1fd0a4f28419497f9722a3daafe3b4186f6b6457e060405160405180910390a35050565b600033905090565b828054610a6390611193565b90600052602060002090601f016020900481019282610a855760008555610acc565b82601f10610a9e57805160ff1916838001178555610acc565b82800160010185558215610acc579182015b82811115610acb578251825591602001919060010190610ab0565b5b509050610ad99190610b63565b5090565b828054610ae990611193565b90600052602060002090601f016020900481019282610b0b5760008555610b52565b82601f10610b2457803560ff1916838001178555610b52565b82800160010185558215610b52579182015b82811115610b51578235825591602001919060010190610b36565b5b509050610b5f9190610b63565b5090565b5b80821115610b7c576000816000905550600101610b64565b5090565b6000604051905090565b600080fd5b600080fd5b6000819050919050565b610ba781610b94565b8114610bb257600080fd5b50565b600081359050610bc481610b9e565b92915050565b600060208284031215610be057610bdf610b8a565b5b6000610bee84828501610bb5565b91505092915050565b600081519050919050565b600082825260208201905092915050565b60005b83811015610c31578082015181840152602081019050610c16565b83811115610c40576000848401525b50505050565b6000601f19601f8301169050919050565b6000610c6282610bf7565b610c6c8185610c02565b9350610c7c818560208601610c13565b610c8581610c46565b840191505092915050565b60006020820190508181036000830152610caa8184610c57565b905092915050565b600073ffffffffffffffffffffffffffffffffffffffff82169050919050565b6000610cdd82610cb2565b9050919050565b610ced81610cd2565b82525050565b6000602082019050610d086000830184610ce4565b92915050565b600081519050919050565b600082825260208201905092915050565b6000819050602082019050919050565b610d4381610b94565b82525050565b6000610d558383610d3a565b60208301905092915050565b6000602082019050919050565b6000610d7982610d0e565b610d838185610d19565b9350610d8e83610d2a565b8060005b83811015610dbf578151610da68882610d49565b9750610db183610d61565b925050600181019050610d92565b5085935050505092915050565b60006020820190508181036000830152610de68184610d6e565b905092915050565b610df781610b94565b82525050565b6000602082019050610e126000830184610dee565b92915050565b600080fd5b600080fd5b7f4e487b7100000000000000000000000000000000000000000000000000000000600052604160045260246000fd5b610e5a82610c46565b810181811067ffffffffffffffff82111715610e7957610e78610e22565b5b80604052505050565b6000610e8c610b80565b9050610e988282610e51565b919050565b600067ffffffffffffffff821115610eb857610eb7610e22565b5b610ec182610c46565b9050602081019050919050565b82818337600083830152505050565b6000610ef0610eeb84610e9d565b610e82565b905082815260208101848484011115610f0c57610f0b610e1d565b5b610f17848285610ece565b509392505050565b600082601f830112610f3457610f33610e18565b5b8135610f44848260208601610edd565b91505092915050565b600060208284031215610f6357610f62610b8a565b5b600082013567ffffffffffffffff811115610f8157610f80610b8f565b5b610f8d84828501610f1f565b91505092915050565b60008115159050919050565b610fab81610f96565b82525050565b6000602082019050610fc66000830184610fa2565b92915050565b600063ffffffff82169050919050565b610fe581610fcc565b82525050565b60006020820190506110006000830184610fdc565b92915050565b600080fd5b600080fd5b60008083601f84011261102657611025610e18565b5b8235905067ffffffffffffffff81111561104357611042611006565b5b60208301915083600182028301111561105f5761105e61100b565b5b9250929050565b60008060006040848603121561107f5761107e610b8a565b5b600084013567ffffffffffffffff81111561109d5761109c610b8f565b5b6110a986828701611010565b935093505060206110bc86828701610bb5565b9150509250925092565b6110cf81610cd2565b81146110da57600080fd5b50565b6000813590506110ec816110c6565b92915050565b60006020828403121561110857611107610b8a565b5b6000611116848285016110dd565b91505092915050565b60006080820190506111346000830187610dee565b6111416020830186610dee565b61114e6040830185610dee565b61115b6060830184610fa2565b95945050505050565b7f4e487b7100000000000000000000000000000000000000000000000000000000600052602260045260246000fd5b600060028204905060018216806111ab57607f821691505b602082108114156111bf576111be611164565b5b50919050565b7f536368656d6120616c7265616479207365740000000000000000000000000000600082015250565b60006111fb601283610c02565b9150611206826111c5565b602082019050919050565b6000602082019050818103600083015261122a816111ee565b9050919050565b8082525050565b61124181610b94565b82525050565b600060408201905061125c6000830185611231565b6112696020830184611238565b9392505050565b60008151905061127f81610b9e565b92915050565b60006020828403121561129b5761129a610b8a565b5b60006112a984828501611270565b91505092915050565b7f4e487b7100000000000000000000000000000000000000000000000000000000600052601160045260246000fd5b60006112ec82610fcc565b915063ffffffff821415611303576113026112b2565b5b600182019050919050565b60006040820190506113236000830185610dee565b6113306020830184610dee565b9392505050565b7f4e487b7100000000000000000000000000000000000000000000000000000000600052603260045260246000fd5b7f4f776e61626c653a206e6577206f776e657220697320746865207a65726f206160008201527f6464726573730000000000000000000000000000000000000000000000000000602082015250565b60006113c2602683610c02565b91506113cd82611366565b604082019050919050565b600060208201905081810360008301526113f1816113b5565b9050919050565b7f4f776e61626c653a2063616c6c6572206973206e6f7420746865206f776e6572600082015250565b600061142e602083610c02565b9150611439826113f8565b602082019050919050565b6000602082019050818103600083015261145d81611421565b905091905056fea2646970667358221220f6067aaaf1b957b677cb7a50f89f135b5abb7ceb31965b64002de7f5ab6ba81764736f6c63430008090033",
  "linkReferences": {
    "@zk-kit/incremental-merkle-tree.sol/IncrementalBinaryTree.sol": {
      "IncrementalBinaryTree": [
        {
          "length": 20,
          "start": 152
        },
        {
          "length": 20,
          "start": 2518
        }
      ]
    }
  },
  "deployedLinkReferences": {
    "@zk-kit/incremental-merkle-tree.sol/IncrementalBinaryTree.sol": {
      "IncrementalBinaryTree": [
        {
          "length": 20,
          "start": 1578
        }
      ]
    }
  }
}